{
  "contractName": "Ballot",
  "abi": [
    {
      "inputs": [],
      "payable": false,
      "stateMutability": "nonpayable",
      "type": "constructor"
    },
    {
      "anonymous": false,
      "inputs": [
        {
          "indexed": true,
          "internalType": "address",
          "name": "oldOwner",
          "type": "address"
        },
        {
          "indexed": true,
          "internalType": "address",
          "name": "newOwner",
          "type": "address"
        }
      ],
      "name": "OwnerSet",
      "type": "event"
    },
    {
      "constant": false,
      "inputs": [
        {
          "internalType": "address",
          "name": "newOwner",
          "type": "address"
        }
      ],
      "name": "changeOwner",
      "outputs": [],
      "payable": false,
      "stateMutability": "nonpayable",
      "type": "function"
    },
    {
      "constant": true,
      "inputs": [],
      "name": "getOwner",
      "outputs": [
        {
          "internalType": "address",
          "name": "",
          "type": "address"
        }
      ],
      "payable": false,
      "stateMutability": "view",
      "type": "function"
    },
    {
      "constant": false,
      "inputs": [
        {
          "internalType": "address",
          "name": "_address",
          "type": "address"
        }
      ],
      "name": "setERC20ContractAddress",
      "outputs": [],
      "payable": false,
      "stateMutability": "nonpayable",
      "type": "function"
    },
    {
      "constant": false,
      "inputs": [
        {
          "internalType": "string",
          "name": "_title",
          "type": "string"
        },
        {
          "internalType": "string",
          "name": "_description",
          "type": "string"
        }
      ],
      "name": "addProposal",
      "outputs": [],
      "payable": false,
      "stateMutability": "nonpayable",
      "type": "function"
    },
    {
      "constant": false,
      "inputs": [
        {
          "internalType": "uint256",
          "name": "voteBatch",
          "type": "uint256"
        },
        {
          "internalType": "string",
          "name": "_title",
          "type": "string"
        },
        {
          "internalType": "string",
          "name": "_description",
          "type": "string"
        }
      ],
      "name": "editProposal",
      "outputs": [],
      "payable": false,
      "stateMutability": "nonpayable",
      "type": "function"
    },
    {
      "constant": false,
      "inputs": [
        {
          "internalType": "uint256",
          "name": "voteBatch",
          "type": "uint256"
        },
        {
          "internalType": "uint256",
          "name": "yesNo",
          "type": "uint256"
        }
      ],
      "name": "vote",
      "outputs": [],
      "payable": false,
      "stateMutability": "nonpayable",
      "type": "function"
    },
    {
      "constant": true,
      "inputs": [],
      "name": "getLatestVoteBatch",
      "outputs": [
        {
          "internalType": "uint256",
          "name": "",
          "type": "uint256"
        }
      ],
      "payable": false,
      "stateMutability": "view",
      "type": "function"
    },
    {
      "constant": true,
      "inputs": [],
      "name": "getLatestProposal",
      "outputs": [
        {
          "internalType": "string",
          "name": "title",
          "type": "string"
        },
        {
          "internalType": "string",
          "name": "description",
          "type": "string"
        },
        {
          "internalType": "uint256",
          "name": "yesCount",
          "type": "uint256"
        },
        {
          "internalType": "uint256",
          "name": "noCount",
          "type": "uint256"
        },
        {
          "internalType": "uint256",
          "name": "proposed",
          "type": "uint256"
        },
        {
          "internalType": "uint256",
          "name": "expiration",
          "type": "uint256"
        }
      ],
      "payable": false,
      "stateMutability": "view",
      "type": "function"
    },
    {
      "constant": true,
      "inputs": [
        {
          "internalType": "uint256",
          "name": "voteBatch",
          "type": "uint256"
        }
      ],
      "name": "getProposal",
      "outputs": [
        {
          "internalType": "string",
          "name": "title",
          "type": "string"
        },
        {
          "internalType": "string",
          "name": "description",
          "type": "string"
        },
        {
          "internalType": "uint256",
          "name": "yesCount",
          "type": "uint256"
        },
        {
          "internalType": "uint256",
          "name": "noCount",
          "type": "uint256"
        },
        {
          "internalType": "uint256",
          "name": "proposed",
          "type": "uint256"
        },
        {
          "internalType": "uint256",
          "name": "expiration",
          "type": "uint256"
        }
      ],
      "payable": false,
      "stateMutability": "view",
      "type": "function"
    },
    {
      "constant": true,
      "inputs": [
        {
          "internalType": "uint256",
          "name": "voteBatch",
          "type": "uint256"
        }
      ],
      "name": "getVoters",
      "outputs": [
        {
          "internalType": "address[]",
          "name": "addresses",
          "type": "address[]"
        },
        {
          "internalType": "uint256[]",
          "name": "weights",
          "type": "uint256[]"
        },
        {
          "internalType": "bool[]",
          "name": "voted",
          "type": "bool[]"
        },
        {
          "internalType": "uint256[]",
          "name": "decisions",
          "type": "uint256[]"
        }
      ],
      "payable": false,
      "stateMutability": "view",
      "type": "function"
    },
    {
      "constant": true,
      "inputs": [
        {
          "internalType": "uint256",
          "name": "voteBatch",
          "type": "uint256"
        }
      ],
      "name": "getVoter",
      "outputs": [
        {
          "internalType": "address",
          "name": "voterAddress",
          "type": "address"
        },
        {
          "internalType": "uint256",
          "name": "weight",
          "type": "uint256"
        },
        {
          "internalType": "bool",
          "name": "voted",
          "type": "bool"
        },
        {
          "internalType": "uint256",
          "name": "decision",
          "type": "uint256"
        }
      ],
      "payable": false,
      "stateMutability": "view",
      "type": "function"
    }
  ],
  "bytecode": "0x608060405234801561001057600080fd5b50336000806101000a81548173ffffffffffffffffffffffffffffffffffffffff021916908373ffffffffffffffffffffffffffffffffffffffff1602179055506000809054906101000a900473ffffffffffffffffffffffffffffffffffffffff1673ffffffffffffffffffffffffffffffffffffffff16600073ffffffffffffffffffffffffffffffffffffffff167f342827c97908e5e2f71151c08502a66d44b6f758e3ac2f1de95f02eb95f0a73560405160405180910390a361256e806100dc6000396000f3fe608060405234801561001057600080fd5b50600436106100a95760003560e01c8063a6f9dae111610071578063a6f9dae1146104ce578063ac4a231d14610512578063b384abef14610556578063bc34c5441461058e578063c7f758a8146106ea578063d07bff0c14610819576100a9565b806323d1c95e146100ae5780637260f9cb1461020057806386b646f21461021e578063893d20e8146103795780638f434c3b146103c3575b600080fd5b6101fe600480360360408110156100c457600080fd5b81019080803590602001906401000000008111156100e157600080fd5b8201836020820111156100f357600080fd5b8035906020019184600183028401116401000000008311171561011557600080fd5b91908080601f016020809104026020016040519081016040528093929190818152602001838380828437600081840152601f19601f8201169050808301925050505050505091929192908035906020019064010000000081111561017857600080fd5b82018360208201111561018a57600080fd5b803590602001918460018302840111640100000000831117156101ac57600080fd5b91908080601f016020809104026020016040519081016040528093929190818152602001838380828437600081840152601f19601f8201169050808301925050505050505091929192905050506108a0565b005b610208610a3b565b6040518082815260200191505060405180910390f35b61024a6004803603602081101561023457600080fd5b8101908080359060200190929190505050610bff565b6040518080602001806020018060200180602001858103855289818151815260200191508051906020019060200280838360005b8381101561029957808201518184015260208101905061027e565b50505050905001858103845288818151815260200191508051906020019060200280838360005b838110156102db5780820151818401526020810190506102c0565b50505050905001858103835287818151815260200191508051906020019060200280838360005b8381101561031d578082015181840152602081019050610302565b50505050905001858103825286818151815260200191508051906020019060200280838360005b8381101561035f578082015181840152602081019050610344565b505050509050019850505050505050505060405180910390f35b610381611018565b604051808273ffffffffffffffffffffffffffffffffffffffff1673ffffffffffffffffffffffffffffffffffffffff16815260200191505060405180910390f35b6103cb611041565b604051808060200180602001878152602001868152602001858152602001848152602001838103835289818151815260200191508051906020019080838360005b8381101561042757808201518184015260208101905061040c565b50505050905090810190601f1680156104545780820380516001836020036101000a031916815260200191505b50838103825288818151815260200191508051906020019080838360005b8381101561048d578082015181840152602081019050610472565b50505050905090810190601f1680156104ba5780820380516001836020036101000a031916815260200191505b509850505050505050505060405180910390f35b610510600480360360208110156104e457600080fd5b81019080803573ffffffffffffffffffffffffffffffffffffffff16906020019092919050505061142d565b005b6105546004803603602081101561052857600080fd5b81019080803573ffffffffffffffffffffffffffffffffffffffff1690602001909291905050506115ad565b005b61058c6004803603604081101561056c57600080fd5b8101908080359060200190929190803590602001909291905050506116b3565b005b6106e8600480360360608110156105a457600080fd5b8101908080359060200190929190803590602001906401000000008111156105cb57600080fd5b8201836020820111156105dd57600080fd5b803590602001918460018302840111640100000000831117156105ff57600080fd5b91908080601f016020809104026020016040519081016040528093929190818152602001838380828437600081840152601f19601f8201169050808301925050505050505091929192908035906020019064010000000081111561066257600080fd5b82018360208201111561067457600080fd5b8035906020019184600183028401116401000000008311171561069657600080fd5b91908080601f016020809104026020016040519081016040528093929190818152602001838380828437600081840152601f19601f820116905080830192505050505050509192919290505050611b3a565b005b6107166004803603602081101561070057600080fd5b8101908080359060200190929190505050611da9565b604051808060200180602001878152602001868152602001858152602001848152602001838103835289818151815260200191508051906020019080838360005b83811015610772578082015181840152602081019050610757565b50505050905090810190601f16801561079f5780820380516001836020036101000a031916815260200191505b50838103825288818151815260200191508051906020019080838360005b838110156107d85780820151818401526020810190506107bd565b50505050905090810190601f1680156108055780820380516001836020036101000a031916815260200191505b509850505050505050505060405180910390f35b6108456004803603602081101561082f57600080fd5b8101908080359060200190929190505050612164565b604051808573ffffffffffffffffffffffffffffffffffffffff1673ffffffffffffffffffffffffffffffffffffffff1681526020018481526020018315151515815260200182815260200194505050505060405180910390f35b6000809054906101000a900473ffffffffffffffffffffffffffffffffffffffff1673ffffffffffffffffffffffffffffffffffffffff163373ffffffffffffffffffffffffffffffffffffffff1614610962576040517f08c379a00000000000000000000000000000000000000000000000000000000081526004018080602001828103825260138152602001807f43616c6c6572206973206e6f74206f776e65720000000000000000000000000081525060200191505060405180910390fd5b60026040518060c00160405280848152602001838152602001600081526020016000815260200142815260200162278d0042018152509080600181540180825580915050906001820390600052602060002090600602016000909192909190915060008201518160000190805190602001906109df9291906123b1565b5060208201518160010190805190602001906109fc9291906123b1565b5060408201518160020155606082015181600301556080820151816004015560a082015181600501555050506001600280549050036005819055505050565b600080600160009054906101000a900473ffffffffffffffffffffffffffffffffffffffff1673ffffffffffffffffffffffffffffffffffffffff166370a08231336040518263ffffffff1660e01b8152600401808273ffffffffffffffffffffffffffffffffffffffff1673ffffffffffffffffffffffffffffffffffffffff16815260200191505060206040518083038186803b158015610add57600080fd5b505afa158015610af1573d6000803e3d6000fd5b505050506040513d6020811015610b0757600080fd5b810190808051906020019092919050505090506000811415610b74576040517f08c379a00000000000000000000000000000000000000000000000000000000081526004018080602001828103825260238152602001806125176023913960400191505060405180910390fd5b60006002805490501415610bf0576040517f08c379a00000000000000000000000000000000000000000000000000000000081526004018080602001828103825260158152602001807f4e6f2070726f706f73616c73206d61646520796574000000000000000000000081525060200191505060405180910390fd5b60016002805490500391505090565b6060806060806000600160009054906101000a900473ffffffffffffffffffffffffffffffffffffffff1673ffffffffffffffffffffffffffffffffffffffff166370a08231336040518263ffffffff1660e01b8152600401808273ffffffffffffffffffffffffffffffffffffffff1673ffffffffffffffffffffffffffffffffffffffff16815260200191505060206040518083038186803b158015610ca657600080fd5b505afa158015610cba573d6000803e3d6000fd5b505050506040513d6020811015610cd057600080fd5b810190808051906020019092919050505090506000811415610d3d576040517f08c379a00000000000000000000000000000000000000000000000000000000081526004018080602001828103825260238152602001806125176023913960400191505060405180910390fd5b6004600087815260200190815260200160002080549050604051908082528060200260200182016040528015610d825781602001602082028038833980820191505090505b5094506004600087815260200190815260200160002080549050604051908082528060200260200182016040528015610dca5781602001602082028038833980820191505090505b5093506004600087815260200190815260200160002080549050604051908082528060200260200182016040528015610e125781602001602082028038833980820191505090505b5092506004600087815260200190815260200160002080549050604051908082528060200260200182016040528015610e5a5781602001602082028038833980820191505090505b50915060008090505b600460008881526020019081526020016000208054905081101561100f57600460008881526020019081526020016000208181548110610e9f57fe5b906000526020600020906004020160000160009054906101000a900473ffffffffffffffffffffffffffffffffffffffff16868281518110610edd57fe5b602002602001019073ffffffffffffffffffffffffffffffffffffffff16908173ffffffffffffffffffffffffffffffffffffffff1681525050600460008881526020019081526020016000208181548110610f3557fe5b906000526020600020906004020160010154858281518110610f5357fe5b602002602001018181525050600460008881526020019081526020016000208181548110610f7d57fe5b906000526020600020906004020160020160009054906101000a900460ff16848281518110610fa857fe5b602002602001019015159081151581525050600460008881526020019081526020016000208181548110610fd857fe5b906000526020600020906004020160030154838281518110610ff657fe5b6020026020010181815250508080600101915050610e63565b50509193509193565b60008060009054906101000a900473ffffffffffffffffffffffffffffffffffffffff16905090565b6060806000806000806000600160009054906101000a900473ffffffffffffffffffffffffffffffffffffffff1673ffffffffffffffffffffffffffffffffffffffff166370a08231336040518263ffffffff1660e01b8152600401808273ffffffffffffffffffffffffffffffffffffffff1673ffffffffffffffffffffffffffffffffffffffff16815260200191505060206040518083038186803b1580156110eb57600080fd5b505afa1580156110ff573d6000803e3d6000fd5b505050506040513d602081101561111557600080fd5b810190808051906020019092919050505090506000811415611182576040517f08c379a00000000000000000000000000000000000000000000000000000000081526004018080602001828103825260238152602001806125176023913960400191505060405180910390fd5b600060028054905014156111fe576040517f08c379a00000000000000000000000000000000000000000000000000000000081526004018080602001828103825260158152602001807f4e6f2070726f706f73616c73206d61646520796574000000000000000000000081525060200191505060405180910390fd5b60026001600280549050038154811061121357fe5b90600052602060002090600602016000018054600181600116156101000203166002900480601f0160208091040260200160405190810160405280929190818152602001828054600181600116156101000203166002900480156112b85780601f1061128d576101008083540402835291602001916112b8565b820191906000526020600020905b81548152906001019060200180831161129b57829003601f168201915b505050505096506002600160028054905003815481106112d457fe5b90600052602060002090600602016001018054600181600116156101000203166002900480601f0160208091040260200160405190810160405280929190818152602001828054600181600116156101000203166002900480156113795780601f1061134e57610100808354040283529160200191611379565b820191906000526020600020905b81548152906001019060200180831161135c57829003601f168201915b5050505050955060026001600280549050038154811061139557fe5b90600052602060002090600602016002015494506002600160028054905003815481106113be57fe5b90600052602060002090600602016003015493506002600160028054905003815481106113e757fe5b906000526020600020906006020160040154925060026001600280549050038154811061141057fe5b906000526020600020906006020160050154915050909192939495565b6000809054906101000a900473ffffffffffffffffffffffffffffffffffffffff1673ffffffffffffffffffffffffffffffffffffffff163373ffffffffffffffffffffffffffffffffffffffff16146114ef576040517f08c379a00000000000000000000000000000000000000000000000000000000081526004018080602001828103825260138152602001807f43616c6c6572206973206e6f74206f776e65720000000000000000000000000081525060200191505060405180910390fd5b8073ffffffffffffffffffffffffffffffffffffffff166000809054906101000a900473ffffffffffffffffffffffffffffffffffffffff1673ffffffffffffffffffffffffffffffffffffffff167f342827c97908e5e2f71151c08502a66d44b6f758e3ac2f1de95f02eb95f0a73560405160405180910390a3806000806101000a81548173ffffffffffffffffffffffffffffffffffffffff021916908373ffffffffffffffffffffffffffffffffffffffff16021790555050565b6000809054906101000a900473ffffffffffffffffffffffffffffffffffffffff1673ffffffffffffffffffffffffffffffffffffffff163373ffffffffffffffffffffffffffffffffffffffff161461166f576040517f08c379a00000000000000000000000000000000000000000000000000000000081526004018080602001828103825260138152602001807f43616c6c6572206973206e6f74206f776e65720000000000000000000000000081525060200191505060405180910390fd5b80600160006101000a81548173ffffffffffffffffffffffffffffffffffffffff021916908373ffffffffffffffffffffffffffffffffffffffff16021790555050565b60006003600084815260200190815260200160002060003373ffffffffffffffffffffffffffffffffffffffff1673ffffffffffffffffffffffffffffffffffffffff16815260200190815260200160002090506000600160009054906101000a900473ffffffffffffffffffffffffffffffffffffffff1673ffffffffffffffffffffffffffffffffffffffff166370a08231336040518263ffffffff1660e01b8152600401808273ffffffffffffffffffffffffffffffffffffffff1673ffffffffffffffffffffffffffffffffffffffff16815260200191505060206040518083038186803b1580156117a857600080fd5b505afa1580156117bc573d6000803e3d6000fd5b505050506040513d60208110156117d257600080fd5b81019080805190602001909291905050509050600081141561183f576040517f08c379a00000000000000000000000000000000000000000000000000000000081526004018080602001828103825260238152602001806125176023913960400191505060405180910390fd5b8160020160009054906101000a900460ff16156118c4576040517f08c379a000000000000000000000000000000000000000000000000000000000815260040180806020018281038252600e8152602001807f416c726561647920766f7465642e00000000000000000000000000000000000081525060200191505060405180910390fd5b42600285815481106118d257fe5b9060005260206000209060060201600501541015611958576040517f08c379a000000000000000000000000000000000000000000000000000000000815260040180806020018281038252601d8152602001807f50726f706f73616c2074696d6520746f20766f7465206578706972656400000081525060200191505060405180910390fd5b836002805490501161196957600080fd5b80826001018190555060018260020160006101000a81548160ff021916908315150217905550828260030181905550338260000160006101000a81548173ffffffffffffffffffffffffffffffffffffffff021916908373ffffffffffffffffffffffffffffffffffffffff1602179055506004600085815260200190815260200160002082908060018154018082558091505090600182039060005260206000209060040201600090919290919091506000820160009054906101000a900473ffffffffffffffffffffffffffffffffffffffff168160000160006101000a81548173ffffffffffffffffffffffffffffffffffffffff021916908373ffffffffffffffffffffffffffffffffffffffff160217905550600182015481600101556002820160009054906101000a900460ff168160020160006101000a81548160ff021916908315150217905550600382015481600301555050506000831415611b0357816001015460028581548110611ae057fe5b906000526020600020906006020160030160008282540192505081905550611b34565b816001015460028581548110611b1557fe5b9060005260206000209060060201600201600082825401925050819055505b50505050565b6000809054906101000a900473ffffffffffffffffffffffffffffffffffffffff1673ffffffffffffffffffffffffffffffffffffffff163373ffffffffffffffffffffffffffffffffffffffff1614611bfc576040517f08c379a00000000000000000000000000000000000000000000000000000000081526004018080602001828103825260138152602001807f43616c6c6572206973206e6f74206f776e65720000000000000000000000000081525060200191505060405180910390fd5b8160028481548110611c0a57fe5b90600052602060002090600602016000019080519060200190611c2e929190612431565b508060028481548110611c3d57fe5b90600052602060002090600602016001019080519060200190611c61929190612431565b50600060028481548110611c7157fe5b906000526020600020906006020160020181905550600060028481548110611c9557fe5b9060005260206000209060060201600301819055504260028481548110611cb857fe5b90600052602060002090600602016004018190555062278d00420160028481548110611ce057fe5b90600052602060002090600602016005018190555060008090505b6004600085815260200190815260200160002080549050811015611da3576000600460008681526020019081526020016000208281548110611d3957fe5b906000526020600020906004020160020160006101000a81548160ff0219169083151502179055506000600460008681526020019081526020016000208281548110611d8157fe5b9060005260206000209060040201600301819055508080600101915050611cfb565b50505050565b6060806000806000806000600160009054906101000a900473ffffffffffffffffffffffffffffffffffffffff1673ffffffffffffffffffffffffffffffffffffffff166370a08231336040518263ffffffff1660e01b8152600401808273ffffffffffffffffffffffffffffffffffffffff1673ffffffffffffffffffffffffffffffffffffffff16815260200191505060206040518083038186803b158015611e5357600080fd5b505afa158015611e67573d6000803e3d6000fd5b505050506040513d6020811015611e7d57600080fd5b810190808051906020019092919050505090506000811415611eea576040517f08c379a00000000000000000000000000000000000000000000000000000000081526004018080602001828103825260238152602001806125176023913960400191505060405180910390fd5b8760028054905011611f64576040517f08c379a000000000000000000000000000000000000000000000000000000000815260040180806020018281038252601b8152602001807f566f746520626174636820686173206e6f742068617070656e6564000000000081525060200191505060405180910390fd5b60028881548110611f7157fe5b90600052602060002090600602016000018054600181600116156101000203166002900480601f0160208091040260200160405190810160405280929190818152602001828054600181600116156101000203166002900480156120165780601f10611feb57610100808354040283529160200191612016565b820191906000526020600020905b815481529060010190602001808311611ff957829003601f168201915b505050505096506002888154811061202a57fe5b90600052602060002090600602016001018054600181600116156101000203166002900480601f0160208091040260200160405190810160405280929190818152602001828054600181600116156101000203166002900480156120cf5780601f106120a4576101008083540402835291602001916120cf565b820191906000526020600020905b8154815290600101906020018083116120b257829003601f168201915b50505050509550600288815481106120e357fe5b90600052602060002090600602016002015494506002888154811061210457fe5b90600052602060002090600602016003015493506002888154811061212557fe5b90600052602060002090600602016004015492506002888154811061214657fe5b90600052602060002090600602016005015491505091939550919395565b6000806000806000600160009054906101000a900473ffffffffffffffffffffffffffffffffffffffff1673ffffffffffffffffffffffffffffffffffffffff166370a08231336040518263ffffffff1660e01b8152600401808273ffffffffffffffffffffffffffffffffffffffff1673ffffffffffffffffffffffffffffffffffffffff16815260200191505060206040518083038186803b15801561220b57600080fd5b505afa15801561221f573d6000803e3d6000fd5b505050506040513d602081101561223557600080fd5b8101908080519060200190929190505050905060008114156122a2576040517f08c379a00000000000000000000000000000000000000000000000000000000081526004018080602001828103825260238152602001806125176023913960400191505060405180910390fd5b6122aa6124b1565b6003600088815260200190815260200160002060003373ffffffffffffffffffffffffffffffffffffffff1673ffffffffffffffffffffffffffffffffffffffff1681526020019081526020016000206040518060800160405290816000820160009054906101000a900473ffffffffffffffffffffffffffffffffffffffff1673ffffffffffffffffffffffffffffffffffffffff1673ffffffffffffffffffffffffffffffffffffffff168152602001600182015481526020016002820160009054906101000a900460ff1615151515815260200160038201548152505090508060000151955080602001519450806040015193508060600151925050509193509193565b828054600181600116156101000203166002900490600052602060002090601f016020900481019282601f106123f257805160ff1916838001178555612420565b82800160010185558215612420579182015b8281111561241f578251825591602001919060010190612404565b5b50905061242d91906124f1565b5090565b828054600181600116156101000203166002900490600052602060002090601f016020900481019282601f1061247257805160ff19168380011785556124a0565b828001600101855582156124a0579182015b8281111561249f578251825591602001919060010190612484565b5b5090506124ad91906124f1565b5090565b6040518060800160405280600073ffffffffffffffffffffffffffffffffffffffff16815260200160008152602001600015158152602001600081525090565b61251391905b8082111561250f5760008160009055506001016124f7565b5090565b9056fe486173206e6f20746f6b656e732c20616e64206e6f20726967687420746f20766f7465a265627a7a72315820651781a230a3be8edf977ed3da9237189a9f60d28711471b47f4ee88afefb9bf64736f6c63430005100032",
  "source": "pragma solidity >=0.4.22 <0.7.0;\n\n\nimport \"./Owner.sol\";\n\ninterface ERC20Interface {\n    function totalSupply() external view returns (uint);\n    function balanceOf(address tokenOwner) external view returns (uint balance);\n}\n\n/** \n * @title Ballot\n * @dev Implements voting process along with vote delegation\n */\ncontract Ballot is Owner {\n   ERC20Interface tokenContract;\n\n    struct Voter {\n        address voterAddress;\n        uint weight; // weight is accumulated by token balance\n        bool voted;  // if true, that person already voted\n        uint decision;   // yes or no (1 or 0)\n    }\n\n    struct Proposal {\n        // If you can limit the length to a certain number of bytes, \n        // always use one of bytes1 to bytes32 because they are much cheaper\n        string title;\n        string description;    \n        uint yesVoteCount; // number of accumulated votes saying yes\n        uint noVoteCount; // number of accumulated votes saying no\n\n        uint dateProposed;\n        uint expirationDate;\n    }\n\n    Proposal[] private proposals;\n\n    mapping(uint => mapping(address => Voter)) private voters;\n\n    mapping(uint => Voter[]) totalVoters;\n\n    uint currentVoteBatch;\n\n    constructor() public {\n\n    }\n\n    function setERC20ContractAddress(address _address) external isOwner {\n      tokenContract = ERC20Interface(_address);\n    }\n\n\n    function addProposal(string memory _title, string memory _description) public isOwner{\n\n        proposals.push(Proposal({\n            title: _title,\n            description: _description,\n            yesVoteCount: 0,\n            noVoteCount: 0,\n            dateProposed: now,\n            expirationDate: now + 30 days\n        }));\n\n        currentVoteBatch = proposals.length - 1;\n    }\n\n    function editProposal(uint voteBatch, string memory _title, string memory _description) public isOwner{\n        proposals[voteBatch].title = _title;\n        proposals[voteBatch].description = _description;        \n        proposals[voteBatch].yesVoteCount = 0;\n        proposals[voteBatch].noVoteCount = 0;\n        proposals[voteBatch].dateProposed = now;\n        proposals[voteBatch].expirationDate = now + 30 days;\n\n        for(uint i = 0; i<totalVoters[voteBatch].length; i++) {\n            totalVoters[voteBatch][i].voted = false;\n            totalVoters[voteBatch][i].decision = 0;\n        }\n\n\n    }\n\n    function vote(uint voteBatch, uint yesNo) public {\n        Voter storage sender = voters[voteBatch][msg.sender];\n\n        uint voteWeight = tokenContract.balanceOf(msg.sender);\n\n        require(voteWeight != 0, \"Has no tokens, and no right to vote\");\n        require(!sender.voted, \"Already voted.\");\n        require(proposals[voteBatch].expirationDate >= now, \"Proposal time to vote expired\");\n        require(proposals.length > voteBatch);\n\n\n        sender.weight = voteWeight;\n        sender.voted = true;\n        sender.decision = yesNo;\n        sender.voterAddress = msg.sender;\n\n        totalVoters[voteBatch].push(sender);\n\n\n        if(yesNo == 0){\n            proposals[voteBatch].noVoteCount += sender.weight;            \n        }\n        else {\n            proposals[voteBatch].yesVoteCount += sender.weight;                        \n        }\n\n    }\n    \n    function getLatestVoteBatch() public view returns(uint){\n        uint voteWeight = tokenContract.balanceOf(msg.sender);\n\n        require(voteWeight != 0, \"Has no tokens, and no right to vote\");\n        require(proposals.length != 0, \"No proposals made yet\");\n\n        return proposals.length - 1;\n    }\n    \n    function getLatestProposal() public view returns(string memory title, string memory description, uint yesCount, uint noCount, uint proposed, uint expiration){\n        uint voteWeight = tokenContract.balanceOf(msg.sender);\n\n        require(voteWeight != 0, \"Has no tokens, and no right to vote\");\n        require(proposals.length != 0, \"No proposals made yet\");\n        \n        title = proposals[proposals.length -1].title;\n        description = proposals[proposals.length -1].description;\n        yesCount = proposals[proposals.length -1].yesVoteCount;\n        noCount = proposals[proposals.length -1].noVoteCount;\n        proposed = proposals[proposals.length -1].dateProposed;\n        expiration = proposals[proposals.length -1].expirationDate;\n    }\n    \n    function getProposal(uint voteBatch) public view returns(string memory title, string memory description, uint yesCount, uint noCount, uint proposed, uint expiration){\n        uint voteWeight = tokenContract.balanceOf(msg.sender);\n\n        require(voteWeight != 0, \"Has no tokens, and no right to vote\");\n        require(proposals.length > voteBatch, \"Vote batch has not happened\");\n        \n        title = proposals[voteBatch].title;\n        description = proposals[voteBatch].description;        \n        yesCount = proposals[voteBatch].yesVoteCount;\n        noCount = proposals[voteBatch].noVoteCount;\n        proposed = proposals[voteBatch].dateProposed;\n        expiration = proposals[voteBatch].expirationDate;\n\n    }\n\n    function getVoters(uint voteBatch) public view \n    returns(address[] memory addresses, \n            uint[] memory weights, \n            bool[] memory voted, \n            uint[] memory decisions){\n        uint voteWeight = tokenContract.balanceOf(msg.sender);\n\n        require(voteWeight != 0, \"Has no tokens, and no right to vote\");\n\n        addresses = new address[](totalVoters[voteBatch].length);\n        weights = new uint[](totalVoters[voteBatch].length);\n        voted = new bool[](totalVoters[voteBatch].length);\n        decisions = new uint[](totalVoters[voteBatch].length);\n        \n        for(uint i = 0; i<totalVoters[voteBatch].length; i++) {\n            addresses[i] = totalVoters[voteBatch][i].voterAddress;\n            weights[i] = totalVoters[voteBatch][i].weight;\n            voted[i] = totalVoters[voteBatch][i].voted;\n            decisions[i] = totalVoters[voteBatch][i].decision;\n        }\n    }\n\n    function getVoter(uint voteBatch) public view \n    returns(address voterAddress, \n            uint  weight, \n            bool  voted, \n            uint  decision){\n        uint voteWeight = tokenContract.balanceOf(msg.sender);\n\n        require(voteWeight != 0, \"Has no tokens, and no right to vote\");\n\n        Voter memory sender = voters[voteBatch][msg.sender];\n\n        voterAddress = sender.voterAddress;\n        weight = sender.weight;\n        voted = sender.voted;\n        decision = sender.decision;\n    }\n\n}\n",
  "sourcePath": "/Users/greentwip/Documents/Source/IvoxisVoting/contracts/Ballot.sol",
  "compiler": {
    "name": "solc",
    "version": "0.5.16+commit.9c3226ce.Emscripten.clang"
  },
  "schemaVersion": "3.0.23",
  "updatedAt": "2020-03-06T00:20:56.661Z",
  "devdoc": {
    "details": "Implements voting process along with vote delegation",
    "methods": {
      "changeOwner(address)": {
        "details": "Change owner",
        "params": {
          "newOwner": "address of new owner"
        }
      },
      "getOwner()": {
        "details": "Return owner address ",
        "return": "address of owner"
      }
    },
    "title": "Ballot"
  },
  "userdoc": {
    "methods": {}
  }
}