{
  "contractName": "Ballot",
  "abi": [
    {
      "inputs": [],
      "payable": false,
      "stateMutability": "nonpayable",
      "type": "constructor"
    },
    {
      "anonymous": false,
      "inputs": [
        {
          "indexed": true,
          "internalType": "address",
          "name": "oldOwner",
          "type": "address"
        },
        {
          "indexed": true,
          "internalType": "address",
          "name": "newOwner",
          "type": "address"
        }
      ],
      "name": "OwnerSet",
      "type": "event"
    },
    {
      "constant": false,
      "inputs": [
        {
          "internalType": "address",
          "name": "newOwner",
          "type": "address"
        }
      ],
      "name": "changeOwner",
      "outputs": [],
      "payable": false,
      "stateMutability": "nonpayable",
      "type": "function"
    },
    {
      "constant": true,
      "inputs": [],
      "name": "getOwner",
      "outputs": [
        {
          "internalType": "address",
          "name": "",
          "type": "address"
        }
      ],
      "payable": false,
      "stateMutability": "view",
      "type": "function"
    },
    {
      "constant": true,
      "inputs": [
        {
          "internalType": "uint256",
          "name": "",
          "type": "uint256"
        }
      ],
      "name": "proposals",
      "outputs": [
        {
          "internalType": "bytes32",
          "name": "name",
          "type": "bytes32"
        },
        {
          "internalType": "uint256",
          "name": "yesVoteCount",
          "type": "uint256"
        },
        {
          "internalType": "uint256",
          "name": "noVoteCount",
          "type": "uint256"
        },
        {
          "internalType": "uint256",
          "name": "dateProposed",
          "type": "uint256"
        },
        {
          "internalType": "uint256",
          "name": "expirationDate",
          "type": "uint256"
        }
      ],
      "payable": false,
      "stateMutability": "view",
      "type": "function"
    },
    {
      "constant": true,
      "inputs": [
        {
          "internalType": "uint256",
          "name": "",
          "type": "uint256"
        },
        {
          "internalType": "address",
          "name": "",
          "type": "address"
        }
      ],
      "name": "voters",
      "outputs": [
        {
          "internalType": "uint256",
          "name": "weight",
          "type": "uint256"
        },
        {
          "internalType": "bool",
          "name": "voted",
          "type": "bool"
        },
        {
          "internalType": "uint256",
          "name": "vote",
          "type": "uint256"
        }
      ],
      "payable": false,
      "stateMutability": "view",
      "type": "function"
    },
    {
      "constant": false,
      "inputs": [
        {
          "internalType": "address",
          "name": "_address",
          "type": "address"
        }
      ],
      "name": "setERC20ContractAddress",
      "outputs": [],
      "payable": false,
      "stateMutability": "nonpayable",
      "type": "function"
    },
    {
      "constant": false,
      "inputs": [
        {
          "internalType": "bytes32",
          "name": "_proposalName",
          "type": "bytes32"
        }
      ],
      "name": "setProposal",
      "outputs": [],
      "payable": false,
      "stateMutability": "nonpayable",
      "type": "function"
    },
    {
      "constant": false,
      "inputs": [
        {
          "internalType": "uint256",
          "name": "yesNo",
          "type": "uint256"
        }
      ],
      "name": "vote",
      "outputs": [],
      "payable": false,
      "stateMutability": "nonpayable",
      "type": "function"
    },
    {
      "constant": true,
      "inputs": [],
      "name": "getProposals",
      "outputs": [
        {
          "components": [
            {
              "internalType": "bytes32",
              "name": "name",
              "type": "bytes32"
            },
            {
              "internalType": "uint256",
              "name": "yesVoteCount",
              "type": "uint256"
            },
            {
              "internalType": "uint256",
              "name": "noVoteCount",
              "type": "uint256"
            },
            {
              "internalType": "uint256",
              "name": "dateProposed",
              "type": "uint256"
            },
            {
              "internalType": "uint256",
              "name": "expirationDate",
              "type": "uint256"
            }
          ],
          "internalType": "struct Ballot.Proposal[]",
          "name": "",
          "type": "tuple[]"
        }
      ],
      "payable": false,
      "stateMutability": "view",
      "type": "function"
    }
  ],
  "bytecode": "0x608060405234801561001057600080fd5b50336000806101000a81548173ffffffffffffffffffffffffffffffffffffffff021916908373ffffffffffffffffffffffffffffffffffffffff1602179055506000809054906101000a900473ffffffffffffffffffffffffffffffffffffffff1673ffffffffffffffffffffffffffffffffffffffff16600073ffffffffffffffffffffffffffffffffffffffff167f342827c97908e5e2f71151c08502a66d44b6f758e3ac2f1de95f02eb95f0a73560405160405180910390a3610f1d806100dc6000396000f3fe608060405234801561001057600080fd5b50600436106100885760003560e01c8063893d20e81161005b578063893d20e8146101175780639e31906314610135578063a6f9dae114610167578063ac4a231d1461018357610088565b80630121b93f1461008d578063013cf08b146100a957806362564c48146100dd57806370a53748146100fb575b600080fd5b6100a760048036036100a2919081019061098c565b61019f565b005b6100c360048036036100be919081019061098c565b610455565b6040516100d4959493929190610cb9565b60405180910390f35b6100e5610498565b6040516100f29190610c97565b60405180910390f35b61011560048036036101109190810190610963565b610529565b005b61011f610659565b60405161012c9190610c61565b60405180910390f35b61014f600480360361014a91908101906109de565b610682565b60405161015e93929190610d8c565b60405180910390f35b610181600480360361017c919081019061093a565b6106c6565b005b61019d6004803603610198919081019061093a565b610813565b005b600060036000600454815260200190815260200160002060003373ffffffffffffffffffffffffffffffffffffffff1673ffffffffffffffffffffffffffffffffffffffff16815260200190815260200160002090506000670de0b6b3a7640000600160009054906101000a900473ffffffffffffffffffffffffffffffffffffffff1673ffffffffffffffffffffffffffffffffffffffff166370a08231336040518263ffffffff1660e01b815260040161025b9190610c7c565b60206040518083038186803b15801561027357600080fd5b505afa158015610287573d6000803e3d6000fd5b505050506040513d601f19601f820116820180604052506102ab91908101906109b5565b816102b257fe5b04905060008114156102f9576040517f08c379a00000000000000000000000000000000000000000000000000000000081526004016102f090610d0c565b60405180910390fd5b8160010160009054906101000a900460ff161561034b576040517f08c379a000000000000000000000000000000000000000000000000000000000815260040161034290610d6c565b60405180910390fd5b4260026004548154811061035b57fe5b90600052602060002090600502016004015411156103ae576040517f08c379a00000000000000000000000000000000000000000000000000000000081526004016103a590610d2c565b60405180910390fd5b80826000018190555060018260010160006101000a81548160ff021916908315150217905550828260020181905550600083141561041d5781600001546002600454815481106103fa57fe5b906000526020600020906005020160020160008282540192505081905550610450565b816000015460026004548154811061043157fe5b9060005260206000209060050201600101600082825401925050819055505b505050565b6002818154811061046257fe5b90600052602060002090600502016000915090508060000154908060010154908060020154908060030154908060040154905085565b60606002805480602002602001604051908101604052809291908181526020016000905b8282101561052057838290600052602060002090600502016040518060a001604052908160008201548152602001600182015481526020016002820154815260200160038201548152602001600482015481525050815260200190600101906104bc565b50505050905090565b6000809054906101000a900473ffffffffffffffffffffffffffffffffffffffff1673ffffffffffffffffffffffffffffffffffffffff163373ffffffffffffffffffffffffffffffffffffffff16146105b8576040517f08c379a00000000000000000000000000000000000000000000000000000000081526004016105af90610d4c565b60405180910390fd5b60026040518060a001604052808381526020016000815260200160008152602001428152602001610e10420181525090806001815401808255809150509060018203906000526020600020906005020160009091929091909150600082015181600001556020820151816001015560408201518160020155606082015181600301556080820151816004015550505060016002805490500360048190555050565b60008060009054906101000a900473ffffffffffffffffffffffffffffffffffffffff16905090565b6003602052816000526040600020602052806000526040600020600091509150508060000154908060010160009054906101000a900460ff16908060020154905083565b6000809054906101000a900473ffffffffffffffffffffffffffffffffffffffff1673ffffffffffffffffffffffffffffffffffffffff163373ffffffffffffffffffffffffffffffffffffffff1614610755576040517f08c379a000000000000000000000000000000000000000000000000000000000815260040161074c90610d4c565b60405180910390fd5b8073ffffffffffffffffffffffffffffffffffffffff166000809054906101000a900473ffffffffffffffffffffffffffffffffffffffff1673ffffffffffffffffffffffffffffffffffffffff167f342827c97908e5e2f71151c08502a66d44b6f758e3ac2f1de95f02eb95f0a73560405160405180910390a3806000806101000a81548173ffffffffffffffffffffffffffffffffffffffff021916908373ffffffffffffffffffffffffffffffffffffffff16021790555050565b6000809054906101000a900473ffffffffffffffffffffffffffffffffffffffff1673ffffffffffffffffffffffffffffffffffffffff163373ffffffffffffffffffffffffffffffffffffffff16146108a2576040517f08c379a000000000000000000000000000000000000000000000000000000000815260040161089990610d4c565b60405180910390fd5b80600160006101000a81548173ffffffffffffffffffffffffffffffffffffffff021916908373ffffffffffffffffffffffffffffffffffffffff16021790555050565b6000813590506108f581610e95565b92915050565b60008135905061090a81610eac565b92915050565b60008135905061091f81610ec3565b92915050565b60008151905061093481610ec3565b92915050565b60006020828403121561094c57600080fd5b600061095a848285016108e6565b91505092915050565b60006020828403121561097557600080fd5b6000610983848285016108fb565b91505092915050565b60006020828403121561099e57600080fd5b60006109ac84828501610910565b91505092915050565b6000602082840312156109c757600080fd5b60006109d584828501610925565b91505092915050565b600080604083850312156109f157600080fd5b60006109ff85828601610910565b9250506020610a10858286016108e6565b9150509250929050565b6000610a268383610bdb565b60a08301905092915050565b610a3b81610e5f565b82525050565b610a4a81610e0d565b82525050565b6000610a5b82610dd3565b610a658185610deb565b9350610a7083610dc3565b8060005b83811015610aa1578151610a888882610a1a565b9750610a9383610dde565b925050600181019050610a74565b5085935050505092915050565b610ab781610e1f565b82525050565b610ac681610e2b565b82525050565b610ad581610e2b565b82525050565b6000610ae8601483610dfc565b91507f486173206e6f20726967687420746f20766f74650000000000000000000000006000830152602082019050919050565b6000610b28601d83610dfc565b91507f50726f706f73616c2074696d6520746f20766f746520657870697265640000006000830152602082019050919050565b6000610b68601383610dfc565b91507f43616c6c6572206973206e6f74206f776e6572000000000000000000000000006000830152602082019050919050565b6000610ba8600e83610dfc565b91507f416c726561647920766f7465642e0000000000000000000000000000000000006000830152602082019050919050565b60a082016000820151610bf16000850182610abd565b506020820151610c046020850182610c43565b506040820151610c176040850182610c43565b506060820151610c2a6060850182610c43565b506080820151610c3d6080850182610c43565b50505050565b610c4c81610e55565b82525050565b610c5b81610e55565b82525050565b6000602082019050610c766000830184610a41565b92915050565b6000602082019050610c916000830184610a32565b92915050565b60006020820190508181036000830152610cb18184610a50565b905092915050565b600060a082019050610cce6000830188610acc565b610cdb6020830187610c52565b610ce86040830186610c52565b610cf56060830185610c52565b610d026080830184610c52565b9695505050505050565b60006020820190508181036000830152610d2581610adb565b9050919050565b60006020820190508181036000830152610d4581610b1b565b9050919050565b60006020820190508181036000830152610d6581610b5b565b9050919050565b60006020820190508181036000830152610d8581610b9b565b9050919050565b6000606082019050610da16000830186610c52565b610dae6020830185610aae565b610dbb6040830184610c52565b949350505050565b6000819050602082019050919050565b600081519050919050565b6000602082019050919050565b600082825260208201905092915050565b600082825260208201905092915050565b6000610e1882610e35565b9050919050565b60008115159050919050565b6000819050919050565b600073ffffffffffffffffffffffffffffffffffffffff82169050919050565b6000819050919050565b6000610e6a82610e71565b9050919050565b6000610e7c82610e83565b9050919050565b6000610e8e82610e35565b9050919050565b610e9e81610e0d565b8114610ea957600080fd5b50565b610eb581610e2b565b8114610ec057600080fd5b50565b610ecc81610e55565b8114610ed757600080fd5b5056fea365627a7a72315820eafc3a82d35551225b9f9bec17f39bfa9c31a103e49ba04e139230a5da65000c6c6578706572696d656e74616cf564736f6c63430005100040",
  "source": "pragma solidity >=0.4.22 <0.7.0;\npragma experimental ABIEncoderV2;\n\n\nimport \"./Owner.sol\";\n\ninterface ERC20Interface {\n    function totalSupply() external view returns (uint);\n    function balanceOf(address tokenOwner) external view returns (uint balance);\n}\n\n/** \n * @title Ballot\n * @dev Implements voting process along with vote delegation\n */\ncontract Ballot is Owner {\n   ERC20Interface tokenContract;\n\n    struct Voter {\n        uint weight; // weight is accumulated by token balance\n        bool voted;  // if true, that person already voted\n        uint vote;   // yes or no (0 or 1)\n    }\n\n    struct Proposal {\n        // If you can limit the length to a certain number of bytes, \n        // always use one of bytes1 to bytes32 because they are much cheaper\n        bytes32 name;   // short name (up to 32 bytes)\n        uint yesVoteCount; // number of accumulated votes saying yes\n        uint noVoteCount; // number of accumulated votes saying no\n\n        uint dateProposed;\n        uint expirationDate;\n    }\n\n    Proposal[] public proposals;\n\n    mapping(uint => mapping(address => Voter)) public voters;\n\n    uint currentVoteBatch;\n\n    constructor() public {\n\n    }\n\n    function setERC20ContractAddress(address _address) external isOwner {\n      tokenContract = ERC20Interface(_address);\n    }\n\n    function setProposal(bytes32 _proposalName) public isOwner{\n\n        proposals.push(Proposal({\n            name: _proposalName,\n            yesVoteCount: 0,\n            noVoteCount: 0,\n            dateProposed: now,\n            expirationDate: now + 1 hours\n        }));\n\n        currentVoteBatch = proposals.length - 1;\n    }\n\n    function vote(uint yesNo) public {\n        Voter storage sender = voters[currentVoteBatch][msg.sender];\n\n        uint voteWeight = tokenContract.balanceOf(msg.sender) / 1 ether;\n\n        require(voteWeight != 0, \"Has no right to vote\");\n        require(!sender.voted, \"Already voted.\");\n        require(proposals[currentVoteBatch].expirationDate <= now, \"Proposal time to vote expired\");\n\n        sender.weight = voteWeight;\n        sender.voted = true;\n        sender.vote = yesNo;\n\n        if(yesNo == 0){\n            proposals[currentVoteBatch].noVoteCount += sender.weight;            \n        }\n        else {\n            proposals[currentVoteBatch].yesVoteCount += sender.weight;                        \n        }\n\n    }\n    \n    function getProposals() public view returns(Proposal[] memory){\n        return proposals;\n    }\n\n}\n",
  "sourcePath": "/Users/greentwip/Documents/Source/IvoxisVoting/contracts/Ballot.sol",
  "compiler": {
    "name": "solc",
    "version": "0.5.16+commit.9c3226ce.Emscripten.clang"
  },
  "schemaVersion": "3.0.23",
  "updatedAt": "2020-02-07T05:02:43.773Z",
  "devdoc": {
    "details": "Implements voting process along with vote delegation",
    "methods": {
      "changeOwner(address)": {
        "details": "Change owner",
        "params": {
          "newOwner": "address of new owner"
        }
      },
      "getOwner()": {
        "details": "Return owner address ",
        "return": "address of owner"
      }
    },
    "title": "Ballot"
  },
  "userdoc": {
    "methods": {}
  }
}