{
  "contractName": "Ballot",
  "abi": [
    {
      "inputs": [],
      "payable": false,
      "stateMutability": "nonpayable",
      "type": "constructor"
    },
    {
      "anonymous": false,
      "inputs": [
        {
          "indexed": true,
          "internalType": "address",
          "name": "oldOwner",
          "type": "address"
        },
        {
          "indexed": true,
          "internalType": "address",
          "name": "newOwner",
          "type": "address"
        }
      ],
      "name": "OwnerSet",
      "type": "event"
    },
    {
      "constant": false,
      "inputs": [
        {
          "internalType": "address",
          "name": "newOwner",
          "type": "address"
        }
      ],
      "name": "changeOwner",
      "outputs": [],
      "payable": false,
      "stateMutability": "nonpayable",
      "type": "function"
    },
    {
      "constant": true,
      "inputs": [],
      "name": "getOwner",
      "outputs": [
        {
          "internalType": "address",
          "name": "",
          "type": "address"
        }
      ],
      "payable": false,
      "stateMutability": "view",
      "type": "function"
    },
    {
      "constant": true,
      "inputs": [
        {
          "internalType": "uint256",
          "name": "",
          "type": "uint256"
        }
      ],
      "name": "proposals",
      "outputs": [
        {
          "internalType": "bytes32",
          "name": "name",
          "type": "bytes32"
        },
        {
          "internalType": "uint256",
          "name": "yesVoteCount",
          "type": "uint256"
        },
        {
          "internalType": "uint256",
          "name": "noVoteCount",
          "type": "uint256"
        },
        {
          "internalType": "uint256",
          "name": "dateProposed",
          "type": "uint256"
        },
        {
          "internalType": "uint256",
          "name": "expirationDate",
          "type": "uint256"
        }
      ],
      "payable": false,
      "stateMutability": "view",
      "type": "function"
    },
    {
      "constant": true,
      "inputs": [
        {
          "internalType": "uint256",
          "name": "",
          "type": "uint256"
        },
        {
          "internalType": "address",
          "name": "",
          "type": "address"
        }
      ],
      "name": "voters",
      "outputs": [
        {
          "internalType": "address",
          "name": "voterAddress",
          "type": "address"
        },
        {
          "internalType": "uint256",
          "name": "weight",
          "type": "uint256"
        },
        {
          "internalType": "bool",
          "name": "voted",
          "type": "bool"
        },
        {
          "internalType": "uint256",
          "name": "vote",
          "type": "uint256"
        }
      ],
      "payable": false,
      "stateMutability": "view",
      "type": "function"
    },
    {
      "constant": false,
      "inputs": [
        {
          "internalType": "address",
          "name": "_address",
          "type": "address"
        }
      ],
      "name": "setERC20ContractAddress",
      "outputs": [],
      "payable": false,
      "stateMutability": "nonpayable",
      "type": "function"
    },
    {
      "constant": false,
      "inputs": [
        {
          "internalType": "bytes32",
          "name": "_proposalName",
          "type": "bytes32"
        }
      ],
      "name": "setProposal",
      "outputs": [],
      "payable": false,
      "stateMutability": "nonpayable",
      "type": "function"
    },
    {
      "constant": false,
      "inputs": [
        {
          "internalType": "uint256",
          "name": "yesNo",
          "type": "uint256"
        }
      ],
      "name": "vote",
      "outputs": [],
      "payable": false,
      "stateMutability": "nonpayable",
      "type": "function"
    },
    {
      "constant": true,
      "inputs": [],
      "name": "getProposals",
      "outputs": [
        {
          "components": [
            {
              "internalType": "bytes32",
              "name": "name",
              "type": "bytes32"
            },
            {
              "internalType": "uint256",
              "name": "yesVoteCount",
              "type": "uint256"
            },
            {
              "internalType": "uint256",
              "name": "noVoteCount",
              "type": "uint256"
            },
            {
              "internalType": "uint256",
              "name": "dateProposed",
              "type": "uint256"
            },
            {
              "internalType": "uint256",
              "name": "expirationDate",
              "type": "uint256"
            }
          ],
          "internalType": "struct Ballot.Proposal[]",
          "name": "",
          "type": "tuple[]"
        }
      ],
      "payable": false,
      "stateMutability": "view",
      "type": "function"
    },
    {
      "constant": true,
      "inputs": [
        {
          "internalType": "uint256",
          "name": "voteBatch",
          "type": "uint256"
        }
      ],
      "name": "getVoters",
      "outputs": [
        {
          "components": [
            {
              "internalType": "address",
              "name": "voterAddress",
              "type": "address"
            },
            {
              "internalType": "uint256",
              "name": "weight",
              "type": "uint256"
            },
            {
              "internalType": "bool",
              "name": "voted",
              "type": "bool"
            },
            {
              "internalType": "uint256",
              "name": "vote",
              "type": "uint256"
            }
          ],
          "internalType": "struct Ballot.Voter[]",
          "name": "",
          "type": "tuple[]"
        }
      ],
      "payable": false,
      "stateMutability": "view",
      "type": "function"
    }
  ],
  "bytecode": "0x608060405234801561001057600080fd5b50336000806101000a81548173ffffffffffffffffffffffffffffffffffffffff021916908373ffffffffffffffffffffffffffffffffffffffff1602179055506000809054906101000a900473ffffffffffffffffffffffffffffffffffffffff1673ffffffffffffffffffffffffffffffffffffffff16600073ffffffffffffffffffffffffffffffffffffffff167f342827c97908e5e2f71151c08502a66d44b6f758e3ac2f1de95f02eb95f0a73560405160405180910390a361130b806100dc6000396000f3fe608060405234801561001057600080fd5b50600436106100935760003560e01c806386b646f21161006657806386b646f214610122578063893d20e8146101525780639e31906314610170578063a6f9dae1146101a3578063ac4a231d146101bf57610093565b80630121b93f14610098578063013cf08b146100b457806362564c48146100e857806370a5374814610106575b600080fd5b6100b260048036036100ad9190810190610c02565b6101db565b005b6100ce60048036036100c99190810190610c02565b6105af565b6040516100df9594939291906110a5565b60405180910390f35b6100f06105f2565b6040516100fd9190611061565b60405180910390f35b610120600480360361011b9190810190610bd9565b610683565b005b61013c60048036036101379190810190610c02565b6107b2565b6040516101499190611083565b60405180910390f35b61015a6108a9565b6040516101679190610fe6565b60405180910390f35b61018a60048036036101859190810190610c54565b6108d2565b60405161019a949392919061101c565b60405180910390f35b6101bd60048036036101b89190810190610bb0565b61093c565b005b6101d960048036036101d49190810190610bb0565b610a89565b005b600060036000600554815260200190815260200160002060003373ffffffffffffffffffffffffffffffffffffffff1673ffffffffffffffffffffffffffffffffffffffff16815260200190815260200160002090506000600160009054906101000a900473ffffffffffffffffffffffffffffffffffffffff1673ffffffffffffffffffffffffffffffffffffffff166370a08231336040518263ffffffff1660e01b815260040161028e9190611001565b60206040518083038186803b1580156102a657600080fd5b505afa1580156102ba573d6000803e3d6000fd5b505050506040513d601f19601f820116820180604052506102de9190810190610c2b565b90506000811415610324576040517f08c379a000000000000000000000000000000000000000000000000000000000815260040161031b90611158565b60405180910390fd5b8160020160009054906101000a900460ff1615610376576040517f08c379a000000000000000000000000000000000000000000000000000000000815260040161036d90611138565b60405180910390fd5b4260026005548154811061038657fe5b90600052602060002090600502016004015410156103d9576040517f08c379a00000000000000000000000000000000000000000000000000000000081526004016103d0906110f8565b60405180910390fd5b80826001018190555060018260020160006101000a81548160ff021916908315150217905550828260030181905550338260000160006101000a81548173ffffffffffffffffffffffffffffffffffffffff021916908373ffffffffffffffffffffffffffffffffffffffff16021790555060046000600554815260200190815260200160002082908060018154018082558091505090600182039060005260206000209060040201600090919290919091506000820160009054906101000a900473ffffffffffffffffffffffffffffffffffffffff168160000160006101000a81548173ffffffffffffffffffffffffffffffffffffffff021916908373ffffffffffffffffffffffffffffffffffffffff160217905550600182015481600101556002820160009054906101000a900460ff168160020160006101000a81548160ff02191690831515021790555060038201548160030155505050600083141561057757816001015460026005548154811061055457fe5b9060005260206000209060050201600201600082825401925050819055506105aa565b816001015460026005548154811061058b57fe5b9060005260206000209060050201600101600082825401925050819055505b505050565b600281815481106105bc57fe5b90600052602060002090600502016000915090508060000154908060010154908060020154908060030154908060040154905085565b60606002805480602002602001604051908101604052809291908181526020016000905b8282101561067a57838290600052602060002090600502016040518060a00160405290816000820154815260200160018201548152602001600282015481526020016003820154815260200160048201548152505081526020019060010190610616565b50505050905090565b6000809054906101000a900473ffffffffffffffffffffffffffffffffffffffff1673ffffffffffffffffffffffffffffffffffffffff163373ffffffffffffffffffffffffffffffffffffffff1614610712576040517f08c379a000000000000000000000000000000000000000000000000000000000815260040161070990611118565b60405180910390fd5b60026040518060a0016040528083815260200160008152602001600081526020014281526020016004420181525090806001815401808255809150509060018203906000526020600020906005020160009091929091909150600082015181600001556020820151816001015560408201518160020155606082015181600301556080820151816004015550505060016002805490500360058190555050565b606060046000838152602001908152602001600020805480602002602001604051908101604052809291908181526020016000905b8282101561089e57838290600052602060002090600402016040518060800160405290816000820160009054906101000a900473ffffffffffffffffffffffffffffffffffffffff1673ffffffffffffffffffffffffffffffffffffffff1673ffffffffffffffffffffffffffffffffffffffff168152602001600182015481526020016002820160009054906101000a900460ff16151515158152602001600382015481525050815260200190600101906107e7565b505050509050919050565b60008060009054906101000a900473ffffffffffffffffffffffffffffffffffffffff16905090565b6003602052816000526040600020602052806000526040600020600091509150508060000160009054906101000a900473ffffffffffffffffffffffffffffffffffffffff16908060010154908060020160009054906101000a900460ff16908060030154905084565b6000809054906101000a900473ffffffffffffffffffffffffffffffffffffffff1673ffffffffffffffffffffffffffffffffffffffff163373ffffffffffffffffffffffffffffffffffffffff16146109cb576040517f08c379a00000000000000000000000000000000000000000000000000000000081526004016109c290611118565b60405180910390fd5b8073ffffffffffffffffffffffffffffffffffffffff166000809054906101000a900473ffffffffffffffffffffffffffffffffffffffff1673ffffffffffffffffffffffffffffffffffffffff167f342827c97908e5e2f71151c08502a66d44b6f758e3ac2f1de95f02eb95f0a73560405160405180910390a3806000806101000a81548173ffffffffffffffffffffffffffffffffffffffff021916908373ffffffffffffffffffffffffffffffffffffffff16021790555050565b6000809054906101000a900473ffffffffffffffffffffffffffffffffffffffff1673ffffffffffffffffffffffffffffffffffffffff163373ffffffffffffffffffffffffffffffffffffffff1614610b18576040517f08c379a0000000000000000000000000000000000000000000000000000000008152600401610b0f90611118565b60405180910390fd5b80600160006101000a81548173ffffffffffffffffffffffffffffffffffffffff021916908373ffffffffffffffffffffffffffffffffffffffff16021790555050565b600081359050610b6b81611283565b92915050565b600081359050610b808161129a565b92915050565b600081359050610b95816112b1565b92915050565b600081519050610baa816112b1565b92915050565b600060208284031215610bc257600080fd5b6000610bd084828501610b5c565b91505092915050565b600060208284031215610beb57600080fd5b6000610bf984828501610b71565b91505092915050565b600060208284031215610c1457600080fd5b6000610c2284828501610b86565b91505092915050565b600060208284031215610c3d57600080fd5b6000610c4b84828501610b9b565b91505092915050565b60008060408385031215610c6757600080fd5b6000610c7585828601610b86565b9250506020610c8685828601610b5c565b9150509250929050565b6000610c9c8383610f0b565b60a08301905092915050565b6000610cb48383610f73565b60808301905092915050565b610cc98161124d565b82525050565b610cd8816111fb565b82525050565b610ce7816111fb565b82525050565b6000610cf882611198565b610d0281856111c8565b9350610d0d83611178565b8060005b83811015610d3e578151610d258882610c90565b9750610d30836111ae565b925050600181019050610d11565b5085935050505092915050565b6000610d56826111a3565b610d6081856111d9565b9350610d6b83611188565b8060005b83811015610d9c578151610d838882610ca8565b9750610d8e836111bb565b925050600181019050610d6f565b5085935050505092915050565b610db28161120d565b82525050565b610dc18161120d565b82525050565b610dd081611219565b82525050565b610ddf81611219565b82525050565b6000610df2601d836111ea565b91507f50726f706f73616c2074696d6520746f20766f746520657870697265640000006000830152602082019050919050565b6000610e326013836111ea565b91507f43616c6c6572206973206e6f74206f776e6572000000000000000000000000006000830152602082019050919050565b6000610e72600e836111ea565b91507f416c726561647920766f7465642e0000000000000000000000000000000000006000830152602082019050919050565b6000610eb26023836111ea565b91507f486173206e6f20746f6b656e732c20616e64206e6f20726967687420746f207660008301527f6f746500000000000000000000000000000000000000000000000000000000006020830152604082019050919050565b60a082016000820151610f216000850182610dc7565b506020820151610f346020850182610fc8565b506040820151610f476040850182610fc8565b506060820151610f5a6060850182610fc8565b506080820151610f6d6080850182610fc8565b50505050565b608082016000820151610f896000850182610ccf565b506020820151610f9c6020850182610fc8565b506040820151610faf6040850182610da9565b506060820151610fc26060850182610fc8565b50505050565b610fd181611243565b82525050565b610fe081611243565b82525050565b6000602082019050610ffb6000830184610cde565b92915050565b60006020820190506110166000830184610cc0565b92915050565b60006080820190506110316000830187610cde565b61103e6020830186610fd7565b61104b6040830185610db8565b6110586060830184610fd7565b95945050505050565b6000602082019050818103600083015261107b8184610ced565b905092915050565b6000602082019050818103600083015261109d8184610d4b565b905092915050565b600060a0820190506110ba6000830188610dd6565b6110c76020830187610fd7565b6110d46040830186610fd7565b6110e16060830185610fd7565b6110ee6080830184610fd7565b9695505050505050565b6000602082019050818103600083015261111181610de5565b9050919050565b6000602082019050818103600083015261113181610e25565b9050919050565b6000602082019050818103600083015261115181610e65565b9050919050565b6000602082019050818103600083015261117181610ea5565b9050919050565b6000819050602082019050919050565b6000819050602082019050919050565b600081519050919050565b600081519050919050565b6000602082019050919050565b6000602082019050919050565b600082825260208201905092915050565b600082825260208201905092915050565b600082825260208201905092915050565b600061120682611223565b9050919050565b60008115159050919050565b6000819050919050565b600073ffffffffffffffffffffffffffffffffffffffff82169050919050565b6000819050919050565b60006112588261125f565b9050919050565b600061126a82611271565b9050919050565b600061127c82611223565b9050919050565b61128c816111fb565b811461129757600080fd5b50565b6112a381611219565b81146112ae57600080fd5b50565b6112ba81611243565b81146112c557600080fd5b5056fea365627a7a7231582067d9ad2898a35b484fa7d5cf107f6e9a9b08bb4e06eef5c30cae1180448c1de76c6578706572696d656e74616cf564736f6c63430005100040",
  "source": "pragma solidity >=0.4.22 <0.7.0;\npragma experimental ABIEncoderV2;\n\n\nimport \"./Owner.sol\";\n\ninterface ERC20Interface {\n    function totalSupply() external view returns (uint);\n    function balanceOf(address tokenOwner) external view returns (uint balance);\n}\n\n/** \n * @title Ballot\n * @dev Implements voting process along with vote delegation\n */\ncontract Ballot is Owner {\n   ERC20Interface tokenContract;\n\n    struct Voter {\n        address voterAddress;\n        uint weight; // weight is accumulated by token balance\n        bool voted;  // if true, that person already voted\n        uint vote;   // yes or no (0 or 1)\n    }\n\n    struct Proposal {\n        // If you can limit the length to a certain number of bytes, \n        // always use one of bytes1 to bytes32 because they are much cheaper\n        bytes32 name;   // short name (up to 32 bytes)\n        uint yesVoteCount; // number of accumulated votes saying yes\n        uint noVoteCount; // number of accumulated votes saying no\n\n        uint dateProposed;\n        uint expirationDate;\n    }\n\n    Proposal[] public proposals;\n\n    mapping(uint => mapping(address => Voter)) public voters;\n\n    mapping(uint => Voter[]) totalVoters;\n\n    uint currentVoteBatch;\n\n    constructor() public {\n\n    }\n\n    function setERC20ContractAddress(address _address) external isOwner {\n      tokenContract = ERC20Interface(_address);\n    }\n\n    function setProposal(bytes32 _proposalName) public isOwner{\n\n        proposals.push(Proposal({\n            name: _proposalName,\n            yesVoteCount: 0,\n            noVoteCount: 0,\n            dateProposed: now,\n            expirationDate: now + 4 seconds\n        }));\n\n        currentVoteBatch = proposals.length - 1;\n    }\n\n    function vote(uint yesNo) public {\n        Voter storage sender = voters[currentVoteBatch][msg.sender];\n\n        uint voteWeight = tokenContract.balanceOf(msg.sender);\n\n        require(voteWeight != 0, \"Has no tokens, and no right to vote\");\n        require(!sender.voted, \"Already voted.\");\n        require(proposals[currentVoteBatch].expirationDate >= now, \"Proposal time to vote expired\");\n\n        sender.weight = voteWeight;\n        sender.voted = true;\n        sender.vote = yesNo;\n        sender.voterAddress = msg.sender;\n\n        totalVoters[currentVoteBatch].push(sender);\n\n\n        if(yesNo == 0){\n            proposals[currentVoteBatch].noVoteCount += sender.weight;            \n        }\n        else {\n            proposals[currentVoteBatch].yesVoteCount += sender.weight;                        \n        }\n\n    }\n    \n    function getProposals() public view returns(Proposal[] memory){\n        return proposals;\n    }\n\n    function getVoters(uint voteBatch) public view returns(Voter[] memory){\n        return totalVoters[voteBatch];\n    }\n\n}\n",
  "sourcePath": "/Users/greentwip/Documents/Source/IvoxisVoting/contracts/Ballot.sol",
  "compiler": {
    "name": "solc",
    "version": "0.5.16+commit.9c3226ce.Emscripten.clang"
  },
  "schemaVersion": "3.0.23",
  "updatedAt": "2020-02-07T09:58:41.091Z",
  "networkType": "ethereum",
  "devdoc": {
    "details": "Implements voting process along with vote delegation",
    "methods": {
      "changeOwner(address)": {
        "details": "Change owner",
        "params": {
          "newOwner": "address of new owner"
        }
      },
      "getOwner()": {
        "details": "Return owner address ",
        "return": "address of owner"
      }
    },
    "title": "Ballot"
  },
  "userdoc": {
    "methods": {}
  }
}