{
  "contractName": "Ballot",
  "abi": [
    {
      "inputs": [],
      "payable": false,
      "stateMutability": "nonpayable",
      "type": "constructor"
    },
    {
      "anonymous": false,
      "inputs": [
        {
          "indexed": true,
          "internalType": "address",
          "name": "oldOwner",
          "type": "address"
        },
        {
          "indexed": true,
          "internalType": "address",
          "name": "newOwner",
          "type": "address"
        }
      ],
      "name": "OwnerSet",
      "type": "event"
    },
    {
      "constant": false,
      "inputs": [
        {
          "internalType": "address",
          "name": "newOwner",
          "type": "address"
        }
      ],
      "name": "changeOwner",
      "outputs": [],
      "payable": false,
      "stateMutability": "nonpayable",
      "type": "function"
    },
    {
      "constant": true,
      "inputs": [],
      "name": "getOwner",
      "outputs": [
        {
          "internalType": "address",
          "name": "",
          "type": "address"
        }
      ],
      "payable": false,
      "stateMutability": "view",
      "type": "function"
    },
    {
      "constant": true,
      "inputs": [
        {
          "internalType": "uint256",
          "name": "",
          "type": "uint256"
        }
      ],
      "name": "proposals",
      "outputs": [
        {
          "internalType": "bytes32",
          "name": "name",
          "type": "bytes32"
        },
        {
          "internalType": "uint256",
          "name": "yesVoteCount",
          "type": "uint256"
        },
        {
          "internalType": "uint256",
          "name": "noVoteCount",
          "type": "uint256"
        },
        {
          "internalType": "uint256",
          "name": "dateProposed",
          "type": "uint256"
        },
        {
          "internalType": "uint256",
          "name": "expirationDate",
          "type": "uint256"
        }
      ],
      "payable": false,
      "stateMutability": "view",
      "type": "function"
    },
    {
      "constant": true,
      "inputs": [
        {
          "internalType": "uint256",
          "name": "",
          "type": "uint256"
        },
        {
          "internalType": "address",
          "name": "",
          "type": "address"
        }
      ],
      "name": "voters",
      "outputs": [
        {
          "internalType": "uint256",
          "name": "weight",
          "type": "uint256"
        },
        {
          "internalType": "bool",
          "name": "voted",
          "type": "bool"
        },
        {
          "internalType": "uint256",
          "name": "vote",
          "type": "uint256"
        }
      ],
      "payable": false,
      "stateMutability": "view",
      "type": "function"
    },
    {
      "constant": false,
      "inputs": [
        {
          "internalType": "address",
          "name": "_address",
          "type": "address"
        }
      ],
      "name": "setERC20ContractAddress",
      "outputs": [],
      "payable": false,
      "stateMutability": "nonpayable",
      "type": "function"
    },
    {
      "constant": false,
      "inputs": [
        {
          "internalType": "bytes32",
          "name": "_proposalName",
          "type": "bytes32"
        }
      ],
      "name": "setProposal",
      "outputs": [],
      "payable": false,
      "stateMutability": "nonpayable",
      "type": "function"
    },
    {
      "constant": false,
      "inputs": [
        {
          "internalType": "uint256",
          "name": "yesNo",
          "type": "uint256"
        }
      ],
      "name": "vote",
      "outputs": [],
      "payable": false,
      "stateMutability": "nonpayable",
      "type": "function"
    },
    {
      "constant": true,
      "inputs": [],
      "name": "getProposals",
      "outputs": [
        {
          "components": [
            {
              "internalType": "bytes32",
              "name": "name",
              "type": "bytes32"
            },
            {
              "internalType": "uint256",
              "name": "yesVoteCount",
              "type": "uint256"
            },
            {
              "internalType": "uint256",
              "name": "noVoteCount",
              "type": "uint256"
            },
            {
              "internalType": "uint256",
              "name": "dateProposed",
              "type": "uint256"
            },
            {
              "internalType": "uint256",
              "name": "expirationDate",
              "type": "uint256"
            }
          ],
          "internalType": "struct Ballot.Proposal[]",
          "name": "",
          "type": "tuple[]"
        }
      ],
      "payable": false,
      "stateMutability": "view",
      "type": "function"
    }
  ],
  "bytecode": "0x608060405234801561001057600080fd5b50336000806101000a81548173ffffffffffffffffffffffffffffffffffffffff021916908373ffffffffffffffffffffffffffffffffffffffff1602179055506000809054906101000a900473ffffffffffffffffffffffffffffffffffffffff1673ffffffffffffffffffffffffffffffffffffffff16600073ffffffffffffffffffffffffffffffffffffffff167f342827c97908e5e2f71151c08502a66d44b6f758e3ac2f1de95f02eb95f0a73560405160405180910390a3610f31806100dc6000396000f3fe608060405234801561001057600080fd5b50600436106100885760003560e01c8063893d20e81161005b578063893d20e8146101175780639e31906314610135578063a6f9dae114610167578063ac4a231d1461018357610088565b80630121b93f1461008d578063013cf08b146100a957806362564c48146100dd57806370a53748146100fb575b600080fd5b6100a760048036036100a2919081019061097a565b61019f565b005b6100c360048036036100be919081019061097a565b610444565b6040516100d4959493929190610ccd565b60405180910390f35b6100e5610487565b6040516100f29190610cab565b60405180910390f35b61011560048036036101109190810190610951565b610518565b005b61011f610647565b60405161012c9190610c75565b60405180910390f35b61014f600480360361014a91908101906109cc565b610670565b60405161015e93929190610da0565b60405180910390f35b610181600480360361017c9190810190610928565b6106b4565b005b61019d60048036036101989190810190610928565b610801565b005b600060036000600454815260200190815260200160002060003373ffffffffffffffffffffffffffffffffffffffff1673ffffffffffffffffffffffffffffffffffffffff16815260200190815260200160002090506000600160009054906101000a900473ffffffffffffffffffffffffffffffffffffffff1673ffffffffffffffffffffffffffffffffffffffff166370a08231336040518263ffffffff1660e01b81526004016102529190610c90565b60206040518083038186803b15801561026a57600080fd5b505afa15801561027e573d6000803e3d6000fd5b505050506040513d601f19601f820116820180604052506102a291908101906109a3565b905060008114156102e8576040517f08c379a00000000000000000000000000000000000000000000000000000000081526004016102df90610d80565b60405180910390fd5b8160010160009054906101000a900460ff161561033a576040517f08c379a000000000000000000000000000000000000000000000000000000000815260040161033190610d60565b60405180910390fd5b4260026004548154811061034a57fe5b906000526020600020906005020160040154101561039d576040517f08c379a000000000000000000000000000000000000000000000000000000000815260040161039490610d20565b60405180910390fd5b80826000018190555060018260010160006101000a81548160ff021916908315150217905550828260020181905550600083141561040c5781600001546002600454815481106103e957fe5b90600052602060002090600502016002016000828254019250508190555061043f565b816000015460026004548154811061042057fe5b9060005260206000209060050201600101600082825401925050819055505b505050565b6002818154811061045157fe5b90600052602060002090600502016000915090508060000154908060010154908060020154908060030154908060040154905085565b60606002805480602002602001604051908101604052809291908181526020016000905b8282101561050f57838290600052602060002090600502016040518060a001604052908160008201548152602001600182015481526020016002820154815260200160038201548152602001600482015481525050815260200190600101906104ab565b50505050905090565b6000809054906101000a900473ffffffffffffffffffffffffffffffffffffffff1673ffffffffffffffffffffffffffffffffffffffff163373ffffffffffffffffffffffffffffffffffffffff16146105a7576040517f08c379a000000000000000000000000000000000000000000000000000000000815260040161059e90610d40565b60405180910390fd5b60026040518060a0016040528083815260200160008152602001600081526020014281526020016004420181525090806001815401808255809150509060018203906000526020600020906005020160009091929091909150600082015181600001556020820151816001015560408201518160020155606082015181600301556080820151816004015550505060016002805490500360048190555050565b60008060009054906101000a900473ffffffffffffffffffffffffffffffffffffffff16905090565b6003602052816000526040600020602052806000526040600020600091509150508060000154908060010160009054906101000a900460ff16908060020154905083565b6000809054906101000a900473ffffffffffffffffffffffffffffffffffffffff1673ffffffffffffffffffffffffffffffffffffffff163373ffffffffffffffffffffffffffffffffffffffff1614610743576040517f08c379a000000000000000000000000000000000000000000000000000000000815260040161073a90610d40565b60405180910390fd5b8073ffffffffffffffffffffffffffffffffffffffff166000809054906101000a900473ffffffffffffffffffffffffffffffffffffffff1673ffffffffffffffffffffffffffffffffffffffff167f342827c97908e5e2f71151c08502a66d44b6f758e3ac2f1de95f02eb95f0a73560405160405180910390a3806000806101000a81548173ffffffffffffffffffffffffffffffffffffffff021916908373ffffffffffffffffffffffffffffffffffffffff16021790555050565b6000809054906101000a900473ffffffffffffffffffffffffffffffffffffffff1673ffffffffffffffffffffffffffffffffffffffff163373ffffffffffffffffffffffffffffffffffffffff1614610890576040517f08c379a000000000000000000000000000000000000000000000000000000000815260040161088790610d40565b60405180910390fd5b80600160006101000a81548173ffffffffffffffffffffffffffffffffffffffff021916908373ffffffffffffffffffffffffffffffffffffffff16021790555050565b6000813590506108e381610ea9565b92915050565b6000813590506108f881610ec0565b92915050565b60008135905061090d81610ed7565b92915050565b60008151905061092281610ed7565b92915050565b60006020828403121561093a57600080fd5b6000610948848285016108d4565b91505092915050565b60006020828403121561096357600080fd5b6000610971848285016108e9565b91505092915050565b60006020828403121561098c57600080fd5b600061099a848285016108fe565b91505092915050565b6000602082840312156109b557600080fd5b60006109c384828501610913565b91505092915050565b600080604083850312156109df57600080fd5b60006109ed858286016108fe565b92505060206109fe858286016108d4565b9150509250929050565b6000610a148383610bef565b60a08301905092915050565b610a2981610e73565b82525050565b610a3881610e21565b82525050565b6000610a4982610de7565b610a538185610dff565b9350610a5e83610dd7565b8060005b83811015610a8f578151610a768882610a08565b9750610a8183610df2565b925050600181019050610a62565b5085935050505092915050565b610aa581610e33565b82525050565b610ab481610e3f565b82525050565b610ac381610e3f565b82525050565b6000610ad6601d83610e10565b91507f50726f706f73616c2074696d6520746f20766f746520657870697265640000006000830152602082019050919050565b6000610b16601383610e10565b91507f43616c6c6572206973206e6f74206f776e6572000000000000000000000000006000830152602082019050919050565b6000610b56600e83610e10565b91507f416c726561647920766f7465642e0000000000000000000000000000000000006000830152602082019050919050565b6000610b96602383610e10565b91507f486173206e6f20746f6b656e732c20616e64206e6f20726967687420746f207660008301527f6f746500000000000000000000000000000000000000000000000000000000006020830152604082019050919050565b60a082016000820151610c056000850182610aab565b506020820151610c186020850182610c57565b506040820151610c2b6040850182610c57565b506060820151610c3e6060850182610c57565b506080820151610c516080850182610c57565b50505050565b610c6081610e69565b82525050565b610c6f81610e69565b82525050565b6000602082019050610c8a6000830184610a2f565b92915050565b6000602082019050610ca56000830184610a20565b92915050565b60006020820190508181036000830152610cc58184610a3e565b905092915050565b600060a082019050610ce26000830188610aba565b610cef6020830187610c66565b610cfc6040830186610c66565b610d096060830185610c66565b610d166080830184610c66565b9695505050505050565b60006020820190508181036000830152610d3981610ac9565b9050919050565b60006020820190508181036000830152610d5981610b09565b9050919050565b60006020820190508181036000830152610d7981610b49565b9050919050565b60006020820190508181036000830152610d9981610b89565b9050919050565b6000606082019050610db56000830186610c66565b610dc26020830185610a9c565b610dcf6040830184610c66565b949350505050565b6000819050602082019050919050565b600081519050919050565b6000602082019050919050565b600082825260208201905092915050565b600082825260208201905092915050565b6000610e2c82610e49565b9050919050565b60008115159050919050565b6000819050919050565b600073ffffffffffffffffffffffffffffffffffffffff82169050919050565b6000819050919050565b6000610e7e82610e85565b9050919050565b6000610e9082610e97565b9050919050565b6000610ea282610e49565b9050919050565b610eb281610e21565b8114610ebd57600080fd5b50565b610ec981610e3f565b8114610ed457600080fd5b50565b610ee081610e69565b8114610eeb57600080fd5b5056fea365627a7a723158205037a15fd097b4a0c401f6877540a350948ca4849847b7194f69ad935a3aaec66c6578706572696d656e74616cf564736f6c63430005100040",
  "source": "pragma solidity >=0.4.22 <0.7.0;\npragma experimental ABIEncoderV2;\n\n\nimport \"./Owner.sol\";\n\ninterface ERC20Interface {\n    function totalSupply() external view returns (uint);\n    function balanceOf(address tokenOwner) external view returns (uint balance);\n}\n\n/** \n * @title Ballot\n * @dev Implements voting process along with vote delegation\n */\ncontract Ballot is Owner {\n   ERC20Interface tokenContract;\n\n    struct Voter {\n        uint weight; // weight is accumulated by token balance\n        bool voted;  // if true, that person already voted\n        uint vote;   // yes or no (0 or 1)\n    }\n\n    struct Proposal {\n        // If you can limit the length to a certain number of bytes, \n        // always use one of bytes1 to bytes32 because they are much cheaper\n        bytes32 name;   // short name (up to 32 bytes)\n        uint yesVoteCount; // number of accumulated votes saying yes\n        uint noVoteCount; // number of accumulated votes saying no\n\n        uint dateProposed;\n        uint expirationDate;\n    }\n\n    Proposal[] public proposals;\n\n    mapping(uint => mapping(address => Voter)) public voters;\n\n    uint currentVoteBatch;\n\n    constructor() public {\n\n    }\n\n    function setERC20ContractAddress(address _address) external isOwner {\n      tokenContract = ERC20Interface(_address);\n    }\n\n    function setProposal(bytes32 _proposalName) public isOwner{\n\n        proposals.push(Proposal({\n            name: _proposalName,\n            yesVoteCount: 0,\n            noVoteCount: 0,\n            dateProposed: now,\n            expirationDate: now + 4 seconds\n        }));\n\n        currentVoteBatch = proposals.length - 1;\n    }\n\n    function vote(uint yesNo) public {\n        Voter storage sender = voters[currentVoteBatch][msg.sender];\n\n        uint voteWeight = tokenContract.balanceOf(msg.sender);\n\n        require(voteWeight != 0, \"Has no tokens, and no right to vote\");\n        require(!sender.voted, \"Already voted.\");\n        require(proposals[currentVoteBatch].expirationDate >= now, \"Proposal time to vote expired\");\n\n        sender.weight = voteWeight;\n        sender.voted = true;\n        sender.vote = yesNo;\n\n        if(yesNo == 0){\n            proposals[currentVoteBatch].noVoteCount += sender.weight;            \n        }\n        else {\n            proposals[currentVoteBatch].yesVoteCount += sender.weight;                        \n        }\n\n    }\n    \n    function getProposals() public view returns(Proposal[] memory){\n        return proposals;\n    }\n\n}\n",
  "sourcePath": "/Users/greentwip/Documents/Source/IvoxisVoting/contracts/Ballot.sol",
  "compiler": {
    "name": "solc",
    "version": "0.5.16+commit.9c3226ce.Emscripten.clang"
  },
  "schemaVersion": "3.0.23",
  "updatedAt": "2020-02-07T08:02:21.308Z",
  "networkType": "ethereum",
  "devdoc": {
    "details": "Implements voting process along with vote delegation",
    "methods": {
      "changeOwner(address)": {
        "details": "Change owner",
        "params": {
          "newOwner": "address of new owner"
        }
      },
      "getOwner()": {
        "details": "Return owner address ",
        "return": "address of owner"
      }
    },
    "title": "Ballot"
  },
  "userdoc": {
    "methods": {}
  }
}