{
  "contractName": "Ballot",
  "abi": [
    {
      "inputs": [],
      "payable": false,
      "stateMutability": "nonpayable",
      "type": "constructor"
    },
    {
      "anonymous": false,
      "inputs": [
        {
          "indexed": true,
          "internalType": "address",
          "name": "oldOwner",
          "type": "address"
        },
        {
          "indexed": true,
          "internalType": "address",
          "name": "newOwner",
          "type": "address"
        }
      ],
      "name": "OwnerSet",
      "type": "event"
    },
    {
      "constant": false,
      "inputs": [
        {
          "internalType": "address",
          "name": "_toAdd",
          "type": "address"
        }
      ],
      "name": "addAuthorized",
      "outputs": [],
      "payable": false,
      "stateMutability": "nonpayable",
      "type": "function"
    },
    {
      "constant": false,
      "inputs": [
        {
          "internalType": "address",
          "name": "newOwner",
          "type": "address"
        }
      ],
      "name": "changeOwner",
      "outputs": [],
      "payable": false,
      "stateMutability": "nonpayable",
      "type": "function"
    },
    {
      "constant": true,
      "inputs": [],
      "name": "getOwner",
      "outputs": [
        {
          "internalType": "address",
          "name": "",
          "type": "address"
        }
      ],
      "payable": false,
      "stateMutability": "view",
      "type": "function"
    },
    {
      "constant": false,
      "inputs": [
        {
          "internalType": "address",
          "name": "_toRemove",
          "type": "address"
        }
      ],
      "name": "removeAuthorized",
      "outputs": [],
      "payable": false,
      "stateMutability": "nonpayable",
      "type": "function"
    },
    {
      "constant": false,
      "inputs": [
        {
          "internalType": "address",
          "name": "_address",
          "type": "address"
        }
      ],
      "name": "setERC20ContractAddress",
      "outputs": [],
      "payable": false,
      "stateMutability": "nonpayable",
      "type": "function"
    },
    {
      "constant": false,
      "inputs": [
        {
          "internalType": "string",
          "name": "_title",
          "type": "string"
        },
        {
          "internalType": "string",
          "name": "_description",
          "type": "string"
        }
      ],
      "name": "addProposal",
      "outputs": [],
      "payable": false,
      "stateMutability": "nonpayable",
      "type": "function"
    },
    {
      "constant": false,
      "inputs": [
        {
          "internalType": "uint256",
          "name": "voteBatch",
          "type": "uint256"
        },
        {
          "internalType": "string",
          "name": "_title",
          "type": "string"
        },
        {
          "internalType": "string",
          "name": "_description",
          "type": "string"
        }
      ],
      "name": "editProposal",
      "outputs": [],
      "payable": false,
      "stateMutability": "nonpayable",
      "type": "function"
    },
    {
      "constant": false,
      "inputs": [
        {
          "internalType": "uint256",
          "name": "voteBatch",
          "type": "uint256"
        },
        {
          "internalType": "uint256",
          "name": "yesNo",
          "type": "uint256"
        }
      ],
      "name": "vote",
      "outputs": [],
      "payable": false,
      "stateMutability": "nonpayable",
      "type": "function"
    },
    {
      "constant": true,
      "inputs": [],
      "name": "getLatestVoteBatch",
      "outputs": [
        {
          "internalType": "int256",
          "name": "",
          "type": "int256"
        }
      ],
      "payable": false,
      "stateMutability": "view",
      "type": "function"
    },
    {
      "constant": true,
      "inputs": [],
      "name": "getLatestProposal",
      "outputs": [
        {
          "internalType": "string",
          "name": "title",
          "type": "string"
        },
        {
          "internalType": "string",
          "name": "description",
          "type": "string"
        },
        {
          "internalType": "uint256",
          "name": "yesCount",
          "type": "uint256"
        },
        {
          "internalType": "uint256",
          "name": "noCount",
          "type": "uint256"
        },
        {
          "internalType": "uint256",
          "name": "proposed",
          "type": "uint256"
        },
        {
          "internalType": "uint256",
          "name": "expiration",
          "type": "uint256"
        }
      ],
      "payable": false,
      "stateMutability": "view",
      "type": "function"
    },
    {
      "constant": true,
      "inputs": [
        {
          "internalType": "uint256",
          "name": "voteBatch",
          "type": "uint256"
        }
      ],
      "name": "getProposal",
      "outputs": [
        {
          "internalType": "string",
          "name": "title",
          "type": "string"
        },
        {
          "internalType": "string",
          "name": "description",
          "type": "string"
        },
        {
          "internalType": "uint256",
          "name": "yesCount",
          "type": "uint256"
        },
        {
          "internalType": "uint256",
          "name": "noCount",
          "type": "uint256"
        },
        {
          "internalType": "uint256",
          "name": "proposed",
          "type": "uint256"
        },
        {
          "internalType": "uint256",
          "name": "expiration",
          "type": "uint256"
        }
      ],
      "payable": false,
      "stateMutability": "view",
      "type": "function"
    },
    {
      "constant": true,
      "inputs": [
        {
          "internalType": "uint256",
          "name": "voteBatch",
          "type": "uint256"
        }
      ],
      "name": "getVoters",
      "outputs": [
        {
          "internalType": "address[]",
          "name": "addresses",
          "type": "address[]"
        },
        {
          "internalType": "uint256[]",
          "name": "weights",
          "type": "uint256[]"
        },
        {
          "internalType": "bool[]",
          "name": "voted",
          "type": "bool[]"
        },
        {
          "internalType": "uint256[]",
          "name": "decisions",
          "type": "uint256[]"
        }
      ],
      "payable": false,
      "stateMutability": "view",
      "type": "function"
    },
    {
      "constant": true,
      "inputs": [
        {
          "internalType": "uint256",
          "name": "voteBatch",
          "type": "uint256"
        }
      ],
      "name": "getVoter",
      "outputs": [
        {
          "internalType": "address",
          "name": "voterAddress",
          "type": "address"
        },
        {
          "internalType": "uint256",
          "name": "weight",
          "type": "uint256"
        },
        {
          "internalType": "bool",
          "name": "voted",
          "type": "bool"
        },
        {
          "internalType": "uint256",
          "name": "decision",
          "type": "uint256"
        }
      ],
      "payable": false,
      "stateMutability": "view",
      "type": "function"
    }
  ],
  "bytecode": "0x608060405234801561001057600080fd5b50336000806101000a81548173ffffffffffffffffffffffffffffffffffffffff021916908373ffffffffffffffffffffffffffffffffffffffff1602179055506000809054906101000a900473ffffffffffffffffffffffffffffffffffffffff1673ffffffffffffffffffffffffffffffffffffffff16600073ffffffffffffffffffffffffffffffffffffffff167f342827c97908e5e2f71151c08502a66d44b6f758e3ac2f1de95f02eb95f0a73560405160405180910390a361292a806100dc6000396000f3fe608060405234801561001057600080fd5b50600436106100cf5760003560e01c8063a6f9dae11161008c578063bc34c54411610066578063bc34c544146105f8578063c7f758a814610754578063cf1c316a14610883578063d07bff0c146108c7576100cf565b8063a6f9dae114610538578063ac4a231d1461057c578063b384abef146105c0576100cf565b806323d1c95e146100d4578063485d7d94146102265780637260f9cb1461026a57806386b646f214610288578063893d20e8146103e35780638f434c3b1461042d575b600080fd5b610224600480360360408110156100ea57600080fd5b810190808035906020019064010000000081111561010757600080fd5b82018360208201111561011957600080fd5b8035906020019184600183028401116401000000008311171561013b57600080fd5b91908080601f016020809104026020016040519081016040528093929190818152602001838380828437600081840152601f19601f8201169050808301925050505050505091929192908035906020019064010000000081111561019e57600080fd5b8201836020820111156101b057600080fd5b803590602001918460018302840111640100000000831117156101d257600080fd5b91908080601f016020809104026020016040519081016040528093929190818152602001838380828437600081840152601f19601f82011690508083019250505050505050919291929050505061094e565b005b6102686004803603602081101561023c57600080fd5b81019080803573ffffffffffffffffffffffffffffffffffffffff169060200190929190505050610ad4565b005b610272610c64565b6040518082815260200191505060405180910390f35b6102b46004803603602081101561029e57600080fd5b8101908080359060200190929190505050610dac565b6040518080602001806020018060200180602001858103855289818151815260200191508051906020019060200280838360005b838110156103035780820151818401526020810190506102e8565b50505050905001858103845288818151815260200191508051906020019060200280838360005b8381101561034557808201518184015260208101905061032a565b50505050905001858103835287818151815260200191508051906020019060200280838360005b8381101561038757808201518184015260208101905061036c565b50505050905001858103825286818151815260200191508051906020019060200280838360005b838110156103c95780820151818401526020810190506103ae565b505050509050019850505050505050505060405180910390f35b6103eb6111c5565b604051808273ffffffffffffffffffffffffffffffffffffffff1673ffffffffffffffffffffffffffffffffffffffff16815260200191505060405180910390f35b6104356111ee565b604051808060200180602001878152602001868152602001858152602001848152602001838103835289818151815260200191508051906020019080838360005b83811015610491578082015181840152602081019050610476565b50505050905090810190601f1680156104be5780820380516001836020036101000a031916815260200191505b50838103825288818151815260200191508051906020019080838360005b838110156104f75780820151818401526020810190506104dc565b50505050905090810190601f1680156105245780820380516001836020036101000a031916815260200191505b509850505050505050505060405180910390f35b61057a6004803603602081101561054e57600080fd5b81019080803573ffffffffffffffffffffffffffffffffffffffff1690602001909291905050506115da565b005b6105be6004803603602081101561059257600080fd5b81019080803573ffffffffffffffffffffffffffffffffffffffff16906020019092919050505061175a565b005b6105f6600480360360408110156105d657600080fd5b81019080803590602001909291908035906020019092919050505061184b565b005b6107526004803603606081101561060e57600080fd5b81019080803590602001909291908035906020019064010000000081111561063557600080fd5b82018360208201111561064757600080fd5b8035906020019184600183028401116401000000008311171561066957600080fd5b91908080601f016020809104026020016040519081016040528093929190818152602001838380828437600081840152601f19601f820116905080830192505050505050509192919290803590602001906401000000008111156106cc57600080fd5b8201836020820111156106de57600080fd5b8035906020019184600183028401116401000000008311171561070057600080fd5b91908080601f016020809104026020016040519081016040528093929190818152602001838380828437600081840152601f19601f820116905080830192505050505050509192919290505050611d3b565b005b6107806004803603602081101561076a57600080fd5b810190808035906020019092919050505061200f565b604051808060200180602001878152602001868152602001858152602001848152602001838103835289818151815260200191508051906020019080838360005b838110156107dc5780820151818401526020810190506107c1565b50505050905090810190601f1680156108095780820380516001836020036101000a031916815260200191505b50838103825288818151815260200191508051906020019080838360005b83811015610842578082015181840152602081019050610827565b50505050905090810190601f16801561086f5780820380516001836020036101000a031916815260200191505b509850505050505050505060405180910390f35b6108c56004803603602081101561089957600080fd5b81019080803573ffffffffffffffffffffffffffffffffffffffff1690602001909291905050506123ca565b005b6108f3600480360360208110156108dd57600080fd5b8101908080359060200190929190505050612520565b604051808573ffffffffffffffffffffffffffffffffffffffff1673ffffffffffffffffffffffffffffffffffffffff1681526020018481526020018315151515815260200182815260200194505050505060405180910390f35b600160003373ffffffffffffffffffffffffffffffffffffffff1673ffffffffffffffffffffffffffffffffffffffff16815260200190815260200160002060009054906101000a900460ff16806109f257503373ffffffffffffffffffffffffffffffffffffffff166000809054906101000a900473ffffffffffffffffffffffffffffffffffffffff1673ffffffffffffffffffffffffffffffffffffffff16145b6109fb57600080fd5b60036040518060c00160405280848152602001838152602001600081526020016000815260200142815260200162278d004201815250908060018154018082558091505090600182039060005260206000209060060201600090919290919091506000820151816000019080519060200190610a7892919061276d565b506020820151816001019080519060200190610a9592919061276d565b5060408201518160020155606082015181600301556080820151816004015560a082015181600501555050506001600380549050036006819055505050565b6000809054906101000a900473ffffffffffffffffffffffffffffffffffffffff1673ffffffffffffffffffffffffffffffffffffffff163373ffffffffffffffffffffffffffffffffffffffff1614610b96576040517f08c379a00000000000000000000000000000000000000000000000000000000081526004018080602001828103825260138152602001807f43616c6c6572206973206e6f74206f776e65720000000000000000000000000081525060200191505060405180910390fd5b600073ffffffffffffffffffffffffffffffffffffffff168173ffffffffffffffffffffffffffffffffffffffff161415610bd057600080fd5b3373ffffffffffffffffffffffffffffffffffffffff168173ffffffffffffffffffffffffffffffffffffffff161415610c0957600080fd5b6000600160008373ffffffffffffffffffffffffffffffffffffffff1673ffffffffffffffffffffffffffffffffffffffff16815260200190815260200160002060006101000a81548160ff02191690831515021790555050565b600080600260009054906101000a900473ffffffffffffffffffffffffffffffffffffffff1673ffffffffffffffffffffffffffffffffffffffff166370a08231336040518263ffffffff1660e01b8152600401808273ffffffffffffffffffffffffffffffffffffffff1673ffffffffffffffffffffffffffffffffffffffff16815260200191505060206040518083038186803b158015610d0657600080fd5b505afa158015610d1a573d6000803e3d6000fd5b505050506040513d6020811015610d3057600080fd5b810190808051906020019092919050505090506000811415610d9d576040517f08c379a00000000000000000000000000000000000000000000000000000000081526004018080602001828103825260238152602001806128d36023913960400191505060405180910390fd5b60016003805490500391505090565b6060806060806000600260009054906101000a900473ffffffffffffffffffffffffffffffffffffffff1673ffffffffffffffffffffffffffffffffffffffff166370a08231336040518263ffffffff1660e01b8152600401808273ffffffffffffffffffffffffffffffffffffffff1673ffffffffffffffffffffffffffffffffffffffff16815260200191505060206040518083038186803b158015610e5357600080fd5b505afa158015610e67573d6000803e3d6000fd5b505050506040513d6020811015610e7d57600080fd5b810190808051906020019092919050505090506000811415610eea576040517f08c379a00000000000000000000000000000000000000000000000000000000081526004018080602001828103825260238152602001806128d36023913960400191505060405180910390fd5b6005600087815260200190815260200160002080549050604051908082528060200260200182016040528015610f2f5781602001602082028038833980820191505090505b5094506005600087815260200190815260200160002080549050604051908082528060200260200182016040528015610f775781602001602082028038833980820191505090505b5093506005600087815260200190815260200160002080549050604051908082528060200260200182016040528015610fbf5781602001602082028038833980820191505090505b50925060056000878152602001908152602001600020805490506040519080825280602002602001820160405280156110075781602001602082028038833980820191505090505b50915060008090505b60056000888152602001908152602001600020805490508110156111bc5760056000888152602001908152602001600020818154811061104c57fe5b906000526020600020906004020160000160009054906101000a900473ffffffffffffffffffffffffffffffffffffffff1686828151811061108a57fe5b602002602001019073ffffffffffffffffffffffffffffffffffffffff16908173ffffffffffffffffffffffffffffffffffffffff16815250506005600088815260200190815260200160002081815481106110e257fe5b90600052602060002090600402016001015485828151811061110057fe5b60200260200101818152505060056000888152602001908152602001600020818154811061112a57fe5b906000526020600020906004020160020160009054906101000a900460ff1684828151811061115557fe5b60200260200101901515908115158152505060056000888152602001908152602001600020818154811061118557fe5b9060005260206000209060040201600301548382815181106111a357fe5b6020026020010181815250508080600101915050611010565b50509193509193565b60008060009054906101000a900473ffffffffffffffffffffffffffffffffffffffff16905090565b6060806000806000806000600260009054906101000a900473ffffffffffffffffffffffffffffffffffffffff1673ffffffffffffffffffffffffffffffffffffffff166370a08231336040518263ffffffff1660e01b8152600401808273ffffffffffffffffffffffffffffffffffffffff1673ffffffffffffffffffffffffffffffffffffffff16815260200191505060206040518083038186803b15801561129857600080fd5b505afa1580156112ac573d6000803e3d6000fd5b505050506040513d60208110156112c257600080fd5b81019080805190602001909291905050509050600081141561132f576040517f08c379a00000000000000000000000000000000000000000000000000000000081526004018080602001828103825260238152602001806128d36023913960400191505060405180910390fd5b600060038054905014156113ab576040517f08c379a00000000000000000000000000000000000000000000000000000000081526004018080602001828103825260158152602001807f4e6f2070726f706f73616c73206d61646520796574000000000000000000000081525060200191505060405180910390fd5b6003600160038054905003815481106113c057fe5b90600052602060002090600602016000018054600181600116156101000203166002900480601f0160208091040260200160405190810160405280929190818152602001828054600181600116156101000203166002900480156114655780601f1061143a57610100808354040283529160200191611465565b820191906000526020600020905b81548152906001019060200180831161144857829003601f168201915b5050505050965060036001600380549050038154811061148157fe5b90600052602060002090600602016001018054600181600116156101000203166002900480601f0160208091040260200160405190810160405280929190818152602001828054600181600116156101000203166002900480156115265780601f106114fb57610100808354040283529160200191611526565b820191906000526020600020905b81548152906001019060200180831161150957829003601f168201915b5050505050955060036001600380549050038154811061154257fe5b906000526020600020906006020160020154945060036001600380549050038154811061156b57fe5b906000526020600020906006020160030154935060036001600380549050038154811061159457fe5b90600052602060002090600602016004015492506003600160038054905003815481106115bd57fe5b906000526020600020906006020160050154915050909192939495565b6000809054906101000a900473ffffffffffffffffffffffffffffffffffffffff1673ffffffffffffffffffffffffffffffffffffffff163373ffffffffffffffffffffffffffffffffffffffff161461169c576040517f08c379a00000000000000000000000000000000000000000000000000000000081526004018080602001828103825260138152602001807f43616c6c6572206973206e6f74206f776e65720000000000000000000000000081525060200191505060405180910390fd5b8073ffffffffffffffffffffffffffffffffffffffff166000809054906101000a900473ffffffffffffffffffffffffffffffffffffffff1673ffffffffffffffffffffffffffffffffffffffff167f342827c97908e5e2f71151c08502a66d44b6f758e3ac2f1de95f02eb95f0a73560405160405180910390a3806000806101000a81548173ffffffffffffffffffffffffffffffffffffffff021916908373ffffffffffffffffffffffffffffffffffffffff16021790555050565b600160003373ffffffffffffffffffffffffffffffffffffffff1673ffffffffffffffffffffffffffffffffffffffff16815260200190815260200160002060009054906101000a900460ff16806117fe57503373ffffffffffffffffffffffffffffffffffffffff166000809054906101000a900473ffffffffffffffffffffffffffffffffffffffff1673ffffffffffffffffffffffffffffffffffffffff16145b61180757600080fd5b80600260006101000a81548173ffffffffffffffffffffffffffffffffffffffff021916908373ffffffffffffffffffffffffffffffffffffffff16021790555050565b60006004600084815260200190815260200160002060003373ffffffffffffffffffffffffffffffffffffffff1673ffffffffffffffffffffffffffffffffffffffff16815260200190815260200160002090506000600260009054906101000a900473ffffffffffffffffffffffffffffffffffffffff1673ffffffffffffffffffffffffffffffffffffffff166370a08231336040518263ffffffff1660e01b8152600401808273ffffffffffffffffffffffffffffffffffffffff1673ffffffffffffffffffffffffffffffffffffffff16815260200191505060206040518083038186803b15801561194057600080fd5b505afa158015611954573d6000803e3d6000fd5b505050506040513d602081101561196a57600080fd5b8101908080519060200190929190505050905060008114156119d7576040517f08c379a00000000000000000000000000000000000000000000000000000000081526004018080602001828103825260238152602001806128d36023913960400191505060405180910390fd5b8160020160009054906101000a900460ff1615611a5c576040517f08c379a000000000000000000000000000000000000000000000000000000000815260040180806020018281038252600e8152602001807f416c726561647920766f7465642e00000000000000000000000000000000000081525060200191505060405180910390fd5b4260038581548110611a6a57fe5b9060005260206000209060060201600501541015611af0576040517f08c379a000000000000000000000000000000000000000000000000000000000815260040180806020018281038252601d8152602001807f50726f706f73616c2074696d6520746f20766f7465206578706972656400000081525060200191505060405180910390fd5b8360038054905011611b6a576040517f08c379a000000000000000000000000000000000000000000000000000000000815260040180806020018281038252601d8152602001807f50726f706f73616c20686173206e6f742068617070656e65642079657400000081525060200191505060405180910390fd5b80826001018190555060018260020160006101000a81548160ff021916908315150217905550828260030181905550338260000160006101000a81548173ffffffffffffffffffffffffffffffffffffffff021916908373ffffffffffffffffffffffffffffffffffffffff1602179055506005600085815260200190815260200160002082908060018154018082558091505090600182039060005260206000209060040201600090919290919091506000820160009054906101000a900473ffffffffffffffffffffffffffffffffffffffff168160000160006101000a81548173ffffffffffffffffffffffffffffffffffffffff021916908373ffffffffffffffffffffffffffffffffffffffff160217905550600182015481600101556002820160009054906101000a900460ff168160020160006101000a81548160ff021916908315150217905550600382015481600301555050506000831415611d0457816001015460038581548110611ce157fe5b906000526020600020906006020160030160008282540192505081905550611d35565b816001015460038581548110611d1657fe5b9060005260206000209060060201600201600082825401925050819055505b50505050565b600160003373ffffffffffffffffffffffffffffffffffffffff1673ffffffffffffffffffffffffffffffffffffffff16815260200190815260200160002060009054906101000a900460ff1680611ddf57503373ffffffffffffffffffffffffffffffffffffffff166000809054906101000a900473ffffffffffffffffffffffffffffffffffffffff1673ffffffffffffffffffffffffffffffffffffffff16145b611de857600080fd5b8260038054905011611e62576040517f08c379a000000000000000000000000000000000000000000000000000000000815260040180806020018281038252601d8152602001807f50726f706f73616c20686173206e6f742068617070656e65642079657400000081525060200191505060405180910390fd5b8160038481548110611e7057fe5b90600052602060002090600602016000019080519060200190611e949291906127ed565b508060038481548110611ea357fe5b90600052602060002090600602016001019080519060200190611ec79291906127ed565b50600060038481548110611ed757fe5b906000526020600020906006020160020181905550600060038481548110611efb57fe5b9060005260206000209060060201600301819055504260038481548110611f1e57fe5b90600052602060002090600602016004018190555062278d00420160038481548110611f4657fe5b90600052602060002090600602016005018190555060008090505b6005600085815260200190815260200160002080549050811015612009576000600560008681526020019081526020016000208281548110611f9f57fe5b906000526020600020906004020160020160006101000a81548160ff0219169083151502179055506000600560008681526020019081526020016000208281548110611fe757fe5b9060005260206000209060040201600301819055508080600101915050611f61565b50505050565b6060806000806000806000600260009054906101000a900473ffffffffffffffffffffffffffffffffffffffff1673ffffffffffffffffffffffffffffffffffffffff166370a08231336040518263ffffffff1660e01b8152600401808273ffffffffffffffffffffffffffffffffffffffff1673ffffffffffffffffffffffffffffffffffffffff16815260200191505060206040518083038186803b1580156120b957600080fd5b505afa1580156120cd573d6000803e3d6000fd5b505050506040513d60208110156120e357600080fd5b810190808051906020019092919050505090506000811415612150576040517f08c379a00000000000000000000000000000000000000000000000000000000081526004018080602001828103825260238152602001806128d36023913960400191505060405180910390fd5b87600380549050116121ca576040517f08c379a000000000000000000000000000000000000000000000000000000000815260040180806020018281038252601b8152602001807f566f746520626174636820686173206e6f742068617070656e6564000000000081525060200191505060405180910390fd5b600388815481106121d757fe5b90600052602060002090600602016000018054600181600116156101000203166002900480601f01602080910402602001604051908101604052809291908181526020018280546001816001161561010002031660029004801561227c5780601f106122515761010080835404028352916020019161227c565b820191906000526020600020905b81548152906001019060200180831161225f57829003601f168201915b505050505096506003888154811061229057fe5b90600052602060002090600602016001018054600181600116156101000203166002900480601f0160208091040260200160405190810160405280929190818152602001828054600181600116156101000203166002900480156123355780601f1061230a57610100808354040283529160200191612335565b820191906000526020600020905b81548152906001019060200180831161231857829003601f168201915b505050505095506003888154811061234957fe5b90600052602060002090600602016002015494506003888154811061236a57fe5b90600052602060002090600602016003015493506003888154811061238b57fe5b9060005260206000209060060201600401549250600388815481106123ac57fe5b90600052602060002090600602016005015491505091939550919395565b6000809054906101000a900473ffffffffffffffffffffffffffffffffffffffff1673ffffffffffffffffffffffffffffffffffffffff163373ffffffffffffffffffffffffffffffffffffffff161461248c576040517f08c379a00000000000000000000000000000000000000000000000000000000081526004018080602001828103825260138152602001807f43616c6c6572206973206e6f74206f776e65720000000000000000000000000081525060200191505060405180910390fd5b600073ffffffffffffffffffffffffffffffffffffffff168173ffffffffffffffffffffffffffffffffffffffff1614156124c657600080fd5b60018060008373ffffffffffffffffffffffffffffffffffffffff1673ffffffffffffffffffffffffffffffffffffffff16815260200190815260200160002060006101000a81548160ff02191690831515021790555050565b6000806000806000600260009054906101000a900473ffffffffffffffffffffffffffffffffffffffff1673ffffffffffffffffffffffffffffffffffffffff166370a08231336040518263ffffffff1660e01b8152600401808273ffffffffffffffffffffffffffffffffffffffff1673ffffffffffffffffffffffffffffffffffffffff16815260200191505060206040518083038186803b1580156125c757600080fd5b505afa1580156125db573d6000803e3d6000fd5b505050506040513d60208110156125f157600080fd5b81019080805190602001909291905050509050600081141561265e576040517f08c379a00000000000000000000000000000000000000000000000000000000081526004018080602001828103825260238152602001806128d36023913960400191505060405180910390fd5b61266661286d565b6004600088815260200190815260200160002060003373ffffffffffffffffffffffffffffffffffffffff1673ffffffffffffffffffffffffffffffffffffffff1681526020019081526020016000206040518060800160405290816000820160009054906101000a900473ffffffffffffffffffffffffffffffffffffffff1673ffffffffffffffffffffffffffffffffffffffff1673ffffffffffffffffffffffffffffffffffffffff168152602001600182015481526020016002820160009054906101000a900460ff1615151515815260200160038201548152505090508060000151955080602001519450806040015193508060600151925050509193509193565b828054600181600116156101000203166002900490600052602060002090601f016020900481019282601f106127ae57805160ff19168380011785556127dc565b828001600101855582156127dc579182015b828111156127db5782518255916020019190600101906127c0565b5b5090506127e991906128ad565b5090565b828054600181600116156101000203166002900490600052602060002090601f016020900481019282601f1061282e57805160ff191683800117855561285c565b8280016001018555821561285c579182015b8281111561285b578251825591602001919060010190612840565b5b50905061286991906128ad565b5090565b6040518060800160405280600073ffffffffffffffffffffffffffffffffffffffff16815260200160008152602001600015158152602001600081525090565b6128cf91905b808211156128cb5760008160009055506001016128b3565b5090565b9056fe486173206e6f20746f6b656e732c20616e64206e6f20726967687420746f20766f7465a265627a7a723158201ad0f3e317f5906c044e7a91678127503a3682e506f261f6352b6e32de65e9ba64736f6c63430005100032",
  "source": "pragma solidity >=0.4.22 <0.7.0;\n\nimport \"./Authorizable.sol\";\n\ninterface ERC20Interface {\n    function totalSupply() external view returns (uint);\n    function balanceOf(address tokenOwner) external view returns (uint balance);\n}\n\n/** \n * @title Ballot\n * @dev Implements voting process along with vote delegation\n */\ncontract Ballot is Authorizable {\n   ERC20Interface tokenContract;\n\n    struct Voter {\n        address voterAddress;\n        uint weight; // weight is accumulated by token balance\n        bool voted;  // if true, that person already voted\n        uint decision;   // yes or no (1 or 0)\n    }\n\n    struct Proposal {\n        // If you can limit the length to a certain number of bytes, \n        // always use one of bytes1 to bytes32 because they are much cheaper\n        string title;\n        string description;    \n        uint yesVoteCount; // number of accumulated votes saying yes\n        uint noVoteCount; // number of accumulated votes saying no\n\n        uint dateProposed;\n        uint expirationDate;\n    }\n\n    Proposal[] private proposals;\n\n    mapping(uint => mapping(address => Voter)) private voters;\n\n    mapping(uint => Voter[]) totalVoters;\n\n    uint currentVoteBatch;\n\n\n    constructor() public {\n    }\n\n    function setERC20ContractAddress(address _address) external onlyAuthorized {\n      tokenContract = ERC20Interface(_address);\n    }\n\n\n    function addProposal(string memory _title, string memory _description) public onlyAuthorized {\n\n        proposals.push(Proposal({\n            title: _title,\n            description: _description,\n            yesVoteCount: 0,\n            noVoteCount: 0,\n            dateProposed: now,\n            expirationDate: now + 30 days\n        }));\n\n        currentVoteBatch = proposals.length - 1;\n    }\n\n    function editProposal(uint voteBatch, string memory _title, string memory _description) public onlyAuthorized {\n        \n        require(proposals.length > voteBatch, \"Proposal has not happened yet\");\n\n        proposals[voteBatch].title = _title;\n        proposals[voteBatch].description = _description;        \n        proposals[voteBatch].yesVoteCount = 0;\n        proposals[voteBatch].noVoteCount = 0;\n        proposals[voteBatch].dateProposed = now;\n        proposals[voteBatch].expirationDate = now + 30 days;\n\n        for(uint i = 0; i<totalVoters[voteBatch].length; i++) {\n            totalVoters[voteBatch][i].voted = false;\n            totalVoters[voteBatch][i].decision = 0;\n        }\n\n\n    }\n\n    function vote(uint voteBatch, uint yesNo) public {\n        Voter storage sender = voters[voteBatch][msg.sender];\n\n        uint voteWeight = tokenContract.balanceOf(msg.sender);\n\n        require(voteWeight != 0, \"Has no tokens, and no right to vote\");\n        require(!sender.voted, \"Already voted.\");\n        require(proposals[voteBatch].expirationDate >= now, \"Proposal time to vote expired\");\n        require(proposals.length > voteBatch, \"Proposal has not happened yet\");\n\n\n        sender.weight = voteWeight;\n        sender.voted = true;\n        sender.decision = yesNo;\n        sender.voterAddress = msg.sender;\n\n        totalVoters[voteBatch].push(sender);\n\n\n        if(yesNo == 0){\n            proposals[voteBatch].noVoteCount += sender.weight;            \n        }\n        else {\n            proposals[voteBatch].yesVoteCount += sender.weight;                        \n        }\n\n    }\n    \n    function getLatestVoteBatch() public view returns(int){\n        uint voteWeight = tokenContract.balanceOf(msg.sender);\n\n        require(voteWeight != 0, \"Has no tokens, and no right to vote\");\n\n        return int(proposals.length) - 1;\n    }\n    \n    function getLatestProposal() public view returns(string memory title, string memory description, uint yesCount, uint noCount, uint proposed, uint expiration){\n        uint voteWeight = tokenContract.balanceOf(msg.sender);\n\n        require(voteWeight != 0, \"Has no tokens, and no right to vote\");\n        require(proposals.length != 0, \"No proposals made yet\");\n        \n        title = proposals[proposals.length -1].title;\n        description = proposals[proposals.length -1].description;\n        yesCount = proposals[proposals.length -1].yesVoteCount;\n        noCount = proposals[proposals.length -1].noVoteCount;\n        proposed = proposals[proposals.length -1].dateProposed;\n        expiration = proposals[proposals.length -1].expirationDate;\n    }\n    \n    function getProposal(uint voteBatch) public view returns(string memory title, string memory description, uint yesCount, uint noCount, uint proposed, uint expiration){\n        uint voteWeight = tokenContract.balanceOf(msg.sender);\n\n        require(voteWeight != 0, \"Has no tokens, and no right to vote\");\n        require(proposals.length > voteBatch, \"Vote batch has not happened\");\n        \n        title = proposals[voteBatch].title;\n        description = proposals[voteBatch].description;        \n        yesCount = proposals[voteBatch].yesVoteCount;\n        noCount = proposals[voteBatch].noVoteCount;\n        proposed = proposals[voteBatch].dateProposed;\n        expiration = proposals[voteBatch].expirationDate;\n\n    }\n\n    function getVoters(uint voteBatch) public view \n    returns(address[] memory addresses, \n            uint[] memory weights, \n            bool[] memory voted, \n            uint[] memory decisions){\n        uint voteWeight = tokenContract.balanceOf(msg.sender);\n\n        require(voteWeight != 0, \"Has no tokens, and no right to vote\");\n\n        addresses = new address[](totalVoters[voteBatch].length);\n        weights = new uint[](totalVoters[voteBatch].length);\n        voted = new bool[](totalVoters[voteBatch].length);\n        decisions = new uint[](totalVoters[voteBatch].length);\n        \n        for(uint i = 0; i<totalVoters[voteBatch].length; i++) {\n            addresses[i] = totalVoters[voteBatch][i].voterAddress;\n            weights[i] = totalVoters[voteBatch][i].weight;\n            voted[i] = totalVoters[voteBatch][i].voted;\n            decisions[i] = totalVoters[voteBatch][i].decision;\n        }\n    }\n\n    function getVoter(uint voteBatch) public view \n    returns(address voterAddress, \n            uint  weight, \n            bool  voted, \n            uint  decision){\n        uint voteWeight = tokenContract.balanceOf(msg.sender);\n\n        require(voteWeight != 0, \"Has no tokens, and no right to vote\");\n\n        Voter memory sender = voters[voteBatch][msg.sender];\n\n        voterAddress = sender.voterAddress;\n        weight = sender.weight;\n        voted = sender.voted;\n        decision = sender.decision;\n    }\n\n}\n",
  "sourcePath": "/Users/greentwip/Documents/Source/IvoxisVoting/contracts/Ballot.sol",
  "compiler": {
    "name": "solc",
    "version": "0.5.16+commit.9c3226ce.Emscripten.clang"
  },
  "schemaVersion": "3.0.23",
  "updatedAt": "2020-03-21T02:32:03.543Z",
  "devdoc": {
    "details": "Implements voting process along with vote delegation",
    "methods": {
      "changeOwner(address)": {
        "details": "Change owner",
        "params": {
          "newOwner": "address of new owner"
        }
      },
      "getOwner()": {
        "details": "Return owner address ",
        "return": "address of owner"
      }
    },
    "title": "Ballot"
  },
  "userdoc": {
    "methods": {}
  }
}