{
  "contractName": "Owner",
  "abi": [
    {
      "inputs": [],
      "payable": false,
      "stateMutability": "nonpayable",
      "type": "constructor"
    },
    {
      "anonymous": false,
      "inputs": [
        {
          "indexed": true,
          "internalType": "address",
          "name": "oldOwner",
          "type": "address"
        },
        {
          "indexed": true,
          "internalType": "address",
          "name": "newOwner",
          "type": "address"
        }
      ],
      "name": "OwnerSet",
      "type": "event"
    },
    {
      "constant": false,
      "inputs": [
        {
          "internalType": "address",
          "name": "newOwner",
          "type": "address"
        }
      ],
      "name": "changeOwner",
      "outputs": [],
      "payable": false,
      "stateMutability": "nonpayable",
      "type": "function"
    },
    {
      "constant": true,
      "inputs": [],
      "name": "getOwner",
      "outputs": [
        {
          "internalType": "address",
          "name": "",
          "type": "address"
        }
      ],
      "payable": false,
      "stateMutability": "view",
      "type": "function"
    }
  ],
  "bytecode": "0x608060405234801561001057600080fd5b50336000806101000a81548173ffffffffffffffffffffffffffffffffffffffff021916908373ffffffffffffffffffffffffffffffffffffffff1602179055506000809054906101000a900473ffffffffffffffffffffffffffffffffffffffff1673ffffffffffffffffffffffffffffffffffffffff16600073ffffffffffffffffffffffffffffffffffffffff167f342827c97908e5e2f71151c08502a66d44b6f758e3ac2f1de95f02eb95f0a73560405160405180910390a36102a7806100dc6000396000f3fe608060405234801561001057600080fd5b50600436106100365760003560e01c8063893d20e81461003b578063a6f9dae114610085575b600080fd5b6100436100c9565b604051808273ffffffffffffffffffffffffffffffffffffffff1673ffffffffffffffffffffffffffffffffffffffff16815260200191505060405180910390f35b6100c76004803603602081101561009b57600080fd5b81019080803573ffffffffffffffffffffffffffffffffffffffff1690602001909291905050506100f2565b005b60008060009054906101000a900473ffffffffffffffffffffffffffffffffffffffff16905090565b6000809054906101000a900473ffffffffffffffffffffffffffffffffffffffff1673ffffffffffffffffffffffffffffffffffffffff163373ffffffffffffffffffffffffffffffffffffffff16146101b4576040517f08c379a00000000000000000000000000000000000000000000000000000000081526004018080602001828103825260138152602001807f43616c6c6572206973206e6f74206f776e65720000000000000000000000000081525060200191505060405180910390fd5b8073ffffffffffffffffffffffffffffffffffffffff166000809054906101000a900473ffffffffffffffffffffffffffffffffffffffff1673ffffffffffffffffffffffffffffffffffffffff167f342827c97908e5e2f71151c08502a66d44b6f758e3ac2f1de95f02eb95f0a73560405160405180910390a3806000806101000a81548173ffffffffffffffffffffffffffffffffffffffff021916908373ffffffffffffffffffffffffffffffffffffffff1602179055505056fea265627a7a7231582074c4b8090269e03ac31cb4589311a9b50418b0092041965d61c0ea74cdd168e364736f6c63430005100032",
  "source": "pragma solidity >=0.4.22 <0.7.0;\n\n/**\n * @title Owner\n * @dev Set & change owner\n */\ncontract Owner {\n\n    address private owner;\n    \n    // event for EVM logging\n    event OwnerSet(address indexed oldOwner, address indexed newOwner);\n    \n    // modifier to check if caller is owner\n    modifier isOwner() {\n        // If the first argument of 'require' evaluates to 'false', execution terminates and all\n        // changes to the state and to Ether balances are reverted.\n        // This used to consume all gas in old EVM versions, but not anymore.\n        // It is often a good idea to use 'require' to check if functions are called correctly.\n        // As a second argument, you can also provide an explanation about what went wrong.\n        require(msg.sender == owner, \"Caller is not owner\");\n        _;\n    }\n    \n    /**\n     * @dev Set contract deployer as owner\n     */\n    constructor() public {\n        owner = msg.sender; // 'msg.sender' is sender of current call, contract deployer for a constructor\n        emit OwnerSet(address(0), owner);\n    }\n\n    /**\n     * @dev Change owner\n     * @param newOwner address of new owner\n     */\n    function changeOwner(address newOwner) public isOwner {\n        emit OwnerSet(owner, newOwner);\n        owner = newOwner;\n    }\n\n    /**\n     * @dev Return owner address \n     * @return address of owner\n     */\n    function getOwner() external view returns (address) {\n        return owner;\n    }\n}",
  "sourcePath": "/Users/greentwip/Documents/Source/IvoxisVoting/contracts/Owner.sol",
  "compiler": {
    "name": "solc",
    "version": "0.5.16+commit.9c3226ce.Emscripten.clang"
  },
  "schemaVersion": "3.0.23",
  "updatedAt": "2020-02-06T03:41:47.045Z",
  "devdoc": {
    "details": "Set & change owner",
    "methods": {
      "changeOwner(address)": {
        "details": "Change owner",
        "params": {
          "newOwner": "address of new owner"
        }
      },
      "constructor": {
        "details": "Set contract deployer as owner"
      },
      "getOwner()": {
        "details": "Return owner address ",
        "return": "address of owner"
      }
    },
    "title": "Owner"
  },
  "userdoc": {
    "methods": {}
  }
}